{
  "contractName": "SimpleStorage",
  "abi": [
    {
      "inputs": [],
      "name": "eventBookingId",
      "outputs": [
        {
          "internalType": "uint256",
          "name": "",
          "type": "uint256"
        }
      ],
      "stateMutability": "view",
      "type": "function",
      "constant": true
    },
    {
      "inputs": [],
      "name": "eventId",
      "outputs": [
        {
          "internalType": "uint256",
          "name": "",
          "type": "uint256"
        }
      ],
      "stateMutability": "view",
      "type": "function",
      "constant": true
    },
    {
      "inputs": [
        {
          "internalType": "uint256",
          "name": "",
          "type": "uint256"
        }
      ],
      "name": "eventList",
      "outputs": [
        {
          "internalType": "uint256",
          "name": "id",
          "type": "uint256"
        },
        {
          "internalType": "uint256",
          "name": "userId",
          "type": "uint256"
        },
        {
          "internalType": "uint256",
          "name": "serviceId",
          "type": "uint256"
        },
        {
          "internalType": "uint256",
          "name": "startTime",
          "type": "uint256"
        },
        {
          "internalType": "uint256",
          "name": "endTime",
          "type": "uint256"
        },
        {
          "internalType": "uint256",
          "name": "price",
          "type": "uint256"
        },
        {
          "internalType": "string",
          "name": "heading",
          "type": "string"
        },
        {
          "internalType": "string",
          "name": "description",
          "type": "string"
        },
        {
          "internalType": "uint256",
          "name": "index",
          "type": "uint256"
        },
        {
          "internalType": "bool",
          "name": "isActive",
          "type": "bool"
        }
      ],
      "stateMutability": "view",
      "type": "function",
      "constant": true
    },
    {
      "inputs": [
        {
          "internalType": "uint256",
          "name": "",
          "type": "uint256"
        },
        {
          "internalType": "uint256",
          "name": "",
          "type": "uint256"
        }
      ],
      "name": "eventReviews",
      "outputs": [
        {
          "internalType": "uint256",
          "name": "id",
          "type": "uint256"
        },
        {
          "internalType": "string",
          "name": "title",
          "type": "string"
        },
        {
          "internalType": "string",
          "name": "description",
          "type": "string"
        },
        {
          "internalType": "uint256",
          "name": "starCount",
          "type": "uint256"
        }
      ],
      "stateMutability": "view",
      "type": "function",
      "constant": true
    },
    {
      "inputs": [],
      "name": "hotelId",
      "outputs": [
        {
          "internalType": "uint256",
          "name": "",
          "type": "uint256"
        }
      ],
      "stateMutability": "view",
      "type": "function",
      "constant": true
    },
    {
      "inputs": [
        {
          "internalType": "uint256",
          "name": "",
          "type": "uint256"
        }
      ],
      "name": "hotelList",
      "outputs": [
        {
          "internalType": "uint256",
          "name": "id",
          "type": "uint256"
        },
        {
          "internalType": "uint256",
          "name": "userId",
          "type": "uint256"
        },
        {
          "internalType": "uint256",
          "name": "serviceId",
          "type": "uint256"
        },
        {
          "internalType": "string",
          "name": "name",
          "type": "string"
        },
        {
          "internalType": "string",
          "name": "typeofHotel",
          "type": "string"
        },
        {
          "internalType": "string",
          "name": "location",
          "type": "string"
        },
        {
          "internalType": "uint256",
          "name": "index",
          "type": "uint256"
        },
        {
          "internalType": "bool",
          "name": "isActive",
          "type": "bool"
        }
      ],
      "stateMutability": "view",
      "type": "function",
      "constant": true
    },
    {
      "inputs": [
        {
          "internalType": "uint256",
          "name": "",
          "type": "uint256"
        },
        {
          "internalType": "uint256",
          "name": "",
          "type": "uint256"
        }
      ],
      "name": "hotelReviews",
      "outputs": [
        {
          "internalType": "uint256",
          "name": "id",
          "type": "uint256"
        },
        {
          "internalType": "string",
          "name": "title",
          "type": "string"
        },
        {
          "internalType": "string",
          "name": "description",
          "type": "string"
        },
        {
          "internalType": "uint256",
          "name": "starCount",
          "type": "uint256"
        }
      ],
      "stateMutability": "view",
      "type": "function",
      "constant": true
    },
    {
      "inputs": [
        {
          "internalType": "uint256",
          "name": "",
          "type": "uint256"
        },
        {
          "internalType": "uint256",
          "name": "",
          "type": "uint256"
        }
      ],
      "name": "hotelRooms",
      "outputs": [
        {
          "internalType": "uint256",
          "name": "id",
          "type": "uint256"
        },
        {
          "internalType": "uint256",
          "name": "hotelId",
          "type": "uint256"
        },
        {
          "internalType": "uint256",
          "name": "userId",
          "type": "uint256"
        },
        {
          "internalType": "uint256",
          "name": "numOfTotalRooms",
          "type": "uint256"
        },
        {
          "internalType": "uint256",
          "name": "numOfRoomsBooked",
          "type": "uint256"
        },
        {
          "internalType": "string",
          "name": "roomType",
          "type": "string"
        },
        {
          "internalType": "uint256",
          "name": "index",
          "type": "uint256"
        }
      ],
      "stateMutability": "view",
      "type": "function",
      "constant": true
    },
    {
      "inputs": [],
      "name": "roomBookingId",
      "outputs": [
        {
          "internalType": "uint256",
          "name": "",
          "type": "uint256"
        }
      ],
      "stateMutability": "view",
      "type": "function",
      "constant": true
    },
    {
      "inputs": [],
      "name": "roomId",
      "outputs": [
        {
          "internalType": "uint256",
          "name": "",
          "type": "uint256"
        }
      ],
      "stateMutability": "view",
      "type": "function",
      "constant": true
    },
    {
      "inputs": [
        {
          "internalType": "uint256",
          "name": "",
          "type": "uint256"
        },
        {
          "internalType": "uint256",
          "name": "",
          "type": "uint256"
        }
      ],
      "name": "serviceEvents",
      "outputs": [
        {
          "internalType": "uint256",
          "name": "id",
          "type": "uint256"
        },
        {
          "internalType": "uint256",
          "name": "userId",
          "type": "uint256"
        },
        {
          "internalType": "uint256",
          "name": "serviceId",
          "type": "uint256"
        },
        {
          "internalType": "uint256",
          "name": "index",
          "type": "uint256"
        }
      ],
      "stateMutability": "view",
      "type": "function",
      "constant": true
    },
    {
      "inputs": [
        {
          "internalType": "uint256",
          "name": "",
          "type": "uint256"
        },
        {
          "internalType": "uint256",
          "name": "",
          "type": "uint256"
        }
      ],
      "name": "serviceHotels",
      "outputs": [
        {
          "internalType": "uint256",
          "name": "id",
          "type": "uint256"
        },
        {
          "internalType": "uint256",
          "name": "userId",
          "type": "uint256"
        },
        {
          "internalType": "uint256",
          "name": "serviceId",
          "type": "uint256"
        },
        {
          "internalType": "uint256",
          "name": "index",
          "type": "uint256"
        }
      ],
      "stateMutability": "view",
      "type": "function",
      "constant": true
    },
    {
      "inputs": [],
      "name": "serviceId",
      "outputs": [
        {
          "internalType": "uint256",
          "name": "",
          "type": "uint256"
        }
      ],
      "stateMutability": "view",
      "type": "function",
      "constant": true
    },
    {
      "inputs": [
        {
          "internalType": "uint256",
          "name": "",
          "type": "uint256"
        },
        {
          "internalType": "uint256",
          "name": "",
          "type": "uint256"
        }
      ],
      "name": "serviceTransports",
      "outputs": [
        {
          "internalType": "uint256",
          "name": "id",
          "type": "uint256"
        },
        {
          "internalType": "uint256",
          "name": "userId",
          "type": "uint256"
        },
        {
          "internalType": "uint256",
          "name": "serviceId",
          "type": "uint256"
        },
        {
          "internalType": "uint256",
          "name": "index",
          "type": "uint256"
        }
      ],
      "stateMutability": "view",
      "type": "function",
      "constant": true
    },
    {
      "inputs": [],
      "name": "transportBookingId",
      "outputs": [
        {
          "internalType": "uint256",
          "name": "",
          "type": "uint256"
        }
      ],
      "stateMutability": "view",
      "type": "function",
      "constant": true
    },
    {
      "inputs": [],
      "name": "transportId",
      "outputs": [
        {
          "internalType": "uint256",
          "name": "",
          "type": "uint256"
        }
      ],
      "stateMutability": "view",
      "type": "function",
      "constant": true
    },
    {
      "inputs": [
        {
          "internalType": "uint256",
          "name": "",
          "type": "uint256"
        }
      ],
      "name": "transportList",
      "outputs": [
        {
          "internalType": "uint256",
          "name": "id",
          "type": "uint256"
        },
        {
          "internalType": "uint256",
          "name": "userId",
          "type": "uint256"
        },
        {
          "internalType": "uint256",
          "name": "serviceId",
          "type": "uint256"
        },
        {
          "internalType": "string",
          "name": "origin",
          "type": "string"
        },
        {
          "internalType": "string",
          "name": "destination",
          "type": "string"
        },
        {
          "internalType": "uint256",
          "name": "startTime",
          "type": "uint256"
        },
        {
          "internalType": "uint256",
          "name": "endTime",
          "type": "uint256"
        },
        {
          "internalType": "string",
          "name": "transportType",
          "type": "string"
        },
        {
          "internalType": "uint256",
          "name": "fare",
          "type": "uint256"
        },
        {
          "internalType": "uint256",
          "name": "index",
          "type": "uint256"
        },
        {
          "internalType": "bool",
          "name": "isActive",
          "type": "bool"
        }
      ],
      "stateMutability": "view",
      "type": "function",
      "constant": true
    },
    {
      "inputs": [
        {
          "internalType": "uint256",
          "name": "",
          "type": "uint256"
        },
        {
          "internalType": "uint256",
          "name": "",
          "type": "uint256"
        }
      ],
      "name": "transportReviews",
      "outputs": [
        {
          "internalType": "uint256",
          "name": "id",
          "type": "uint256"
        },
        {
          "internalType": "string",
          "name": "title",
          "type": "string"
        },
        {
          "internalType": "string",
          "name": "description",
          "type": "string"
        },
        {
          "internalType": "uint256",
          "name": "starCount",
          "type": "uint256"
        }
      ],
      "stateMutability": "view",
      "type": "function",
      "constant": true
    },
    {
      "inputs": [
        {
          "internalType": "uint256",
          "name": "",
          "type": "uint256"
        },
        {
          "internalType": "uint256",
          "name": "",
          "type": "uint256"
        }
      ],
      "name": "userEventBookings",
      "outputs": [
        {
          "internalType": "uint256",
          "name": "id",
          "type": "uint256"
        },
        {
          "internalType": "uint256",
          "name": "userId",
          "type": "uint256"
        },
        {
          "internalType": "uint256",
          "name": "eventId",
          "type": "uint256"
        }
      ],
      "stateMutability": "view",
      "type": "function",
      "constant": true
    },
    {
      "inputs": [],
      "name": "userId",
      "outputs": [
        {
          "internalType": "uint256",
          "name": "",
          "type": "uint256"
        }
      ],
      "stateMutability": "view",
      "type": "function",
      "constant": true
    },
    {
      "inputs": [
        {
          "internalType": "uint256",
          "name": "",
          "type": "uint256"
        }
      ],
      "name": "userList",
      "outputs": [
        {
          "internalType": "uint256",
          "name": "id",
          "type": "uint256"
        },
        {
          "internalType": "string",
          "name": "name",
          "type": "string"
        },
        {
          "internalType": "string",
          "name": "mobileNo",
          "type": "string"
        },
        {
          "internalType": "uint256",
          "name": "loyaltyPoints",
          "type": "uint256"
        },
        {
          "internalType": "uint256",
          "name": "index",
          "type": "uint256"
        }
      ],
      "stateMutability": "view",
      "type": "function",
      "constant": true
    },
    {
      "inputs": [
        {
          "internalType": "uint256",
          "name": "",
          "type": "uint256"
        },
        {
          "internalType": "uint256",
          "name": "",
          "type": "uint256"
        }
      ],
      "name": "userRoomBookings",
      "outputs": [
        {
          "internalType": "uint256",
          "name": "id",
          "type": "uint256"
        },
        {
          "internalType": "uint256",
          "name": "userId",
          "type": "uint256"
        },
        {
          "internalType": "uint256",
          "name": "roomId",
          "type": "uint256"
        },
        {
          "internalType": "uint256",
          "name": "checkIn",
          "type": "uint256"
        },
        {
          "internalType": "uint256",
          "name": "checkOut",
          "type": "uint256"
        }
      ],
      "stateMutability": "view",
      "type": "function",
      "constant": true
    },
    {
      "inputs": [
        {
          "internalType": "uint256",
          "name": "",
          "type": "uint256"
        },
        {
          "internalType": "uint256",
          "name": "",
          "type": "uint256"
        }
      ],
      "name": "userServices",
      "outputs": [
        {
          "internalType": "uint256",
          "name": "id",
          "type": "uint256"
        },
        {
          "internalType": "uint256",
          "name": "userId",
          "type": "uint256"
        },
        {
          "internalType": "enum SimpleStorage.SERVICE_TYPE",
          "name": "serviceType",
          "type": "uint8"
        }
      ],
      "stateMutability": "view",
      "type": "function",
      "constant": true
    },
    {
      "inputs": [
        {
          "internalType": "uint256",
          "name": "",
          "type": "uint256"
        },
        {
          "internalType": "uint256",
          "name": "",
          "type": "uint256"
        }
      ],
      "name": "userTransportBookings",
      "outputs": [
        {
          "internalType": "uint256",
          "name": "id",
          "type": "uint256"
        },
        {
          "internalType": "uint256",
          "name": "userId",
          "type": "uint256"
        },
        {
          "internalType": "uint256",
          "name": "transportId",
          "type": "uint256"
        },
        {
          "internalType": "bool",
          "name": "isCancelled",
          "type": "bool"
        }
      ],
      "stateMutability": "view",
      "type": "function",
      "constant": true
    },
    {
      "inputs": [
        {
          "internalType": "uint256",
          "name": "",
          "type": "uint256"
        }
      ],
      "name": "users",
      "outputs": [
        {
          "internalType": "uint256",
          "name": "id",
          "type": "uint256"
        },
        {
          "internalType": "string",
          "name": "name",
          "type": "string"
        },
        {
          "internalType": "string",
          "name": "mobileNo",
          "type": "string"
        },
        {
          "internalType": "uint256",
          "name": "loyaltyPoints",
          "type": "uint256"
        },
        {
          "internalType": "uint256",
          "name": "index",
          "type": "uint256"
        }
      ],
      "stateMutability": "view",
      "type": "function",
      "constant": true
    },
    {
      "inputs": [
        {
          "internalType": "string",
          "name": "_name",
          "type": "string"
        },
        {
          "internalType": "string",
          "name": "_mobileNo",
          "type": "string"
        }
      ],
      "name": "addUser",
      "outputs": [
        {
          "internalType": "uint256",
          "name": "",
          "type": "uint256"
        }
      ],
      "stateMutability": "nonpayable",
      "type": "function"
    },
    {
      "inputs": [
        {
          "internalType": "uint256",
          "name": "_userId",
          "type": "uint256"
        },
        {
          "internalType": "uint256",
          "name": "_roomId",
          "type": "uint256"
        },
        {
          "internalType": "uint256",
          "name": "_checkIn",
          "type": "uint256"
        },
        {
          "internalType": "uint256",
          "name": "_checkOut",
          "type": "uint256"
        }
      ],
      "name": "addRoomBooking",
      "outputs": [
        {
          "internalType": "uint256",
          "name": "",
          "type": "uint256"
        }
      ],
      "stateMutability": "nonpayable",
      "type": "function"
    },
    {
      "inputs": [
        {
          "internalType": "uint256",
          "name": "_userId",
          "type": "uint256"
        },
        {
          "internalType": "uint256",
          "name": "_eventId",
          "type": "uint256"
        }
      ],
      "name": "addEventBooking",
      "outputs": [
        {
          "internalType": "uint256",
          "name": "",
          "type": "uint256"
        }
      ],
      "stateMutability": "nonpayable",
      "type": "function"
    },
    {
      "inputs": [
        {
          "internalType": "uint256",
          "name": "_userId",
          "type": "uint256"
        },
        {
          "internalType": "string",
          "name": "_name",
          "type": "string"
        },
        {
          "internalType": "string",
          "name": "_typeofHotel",
          "type": "string"
        },
        {
          "internalType": "string",
          "name": "_location",
          "type": "string"
        },
        {
          "components": [
            {
              "internalType": "uint256",
              "name": "id",
              "type": "uint256"
            },
            {
              "internalType": "uint256",
              "name": "hotelId",
              "type": "uint256"
            },
            {
              "internalType": "uint256",
              "name": "userId",
              "type": "uint256"
            },
            {
              "internalType": "uint256",
              "name": "numOfTotalRooms",
              "type": "uint256"
            },
            {
              "internalType": "uint256",
              "name": "numOfRoomsBooked",
              "type": "uint256"
            },
            {
              "internalType": "string",
              "name": "roomType",
              "type": "string"
            },
            {
              "internalType": "string[]",
              "name": "roomPics",
              "type": "string[]"
            },
            {
              "internalType": "string[]",
              "name": "facilities",
              "type": "string[]"
            },
            {
              "internalType": "uint256",
              "name": "index",
              "type": "uint256"
            }
          ],
          "internalType": "struct SimpleStorage.Room[]",
          "name": "_rooms",
          "type": "tuple[]"
        }
      ],
      "name": "addHotel",
      "outputs": [
        {
          "internalType": "uint256",
          "name": "",
          "type": "uint256"
        }
      ],
      "stateMutability": "nonpayable",
      "type": "function"
    },
    {
      "inputs": [
        {
          "internalType": "uint256",
          "name": "_userId",
          "type": "uint256"
        },
        {
          "internalType": "uint256",
          "name": "_startTime",
          "type": "uint256"
        },
        {
          "internalType": "uint256",
          "name": "_endTime",
          "type": "uint256"
        },
        {
          "internalType": "uint256",
          "name": "_price",
          "type": "uint256"
        },
        {
          "internalType": "string",
          "name": "_heading",
          "type": "string"
        },
        {
          "internalType": "string",
          "name": "_description",
          "type": "string"
        }
      ],
      "name": "addEvent",
      "outputs": [
        {
          "internalType": "uint256",
          "name": "",
          "type": "uint256"
        }
      ],
      "stateMutability": "nonpayable",
      "type": "function"
    },
    {
      "inputs": [],
      "name": "getHotels",
      "outputs": [
        {
          "components": [
            {
              "internalType": "uint256",
              "name": "id",
              "type": "uint256"
            },
            {
              "internalType": "uint256",
              "name": "userId",
              "type": "uint256"
            },
            {
              "internalType": "uint256",
              "name": "serviceId",
              "type": "uint256"
            },
            {
              "internalType": "string",
              "name": "name",
              "type": "string"
            },
            {
              "internalType": "string",
              "name": "typeofHotel",
              "type": "string"
            },
            {
              "internalType": "string",
              "name": "location",
              "type": "string"
            },
            {
              "internalType": "uint256",
              "name": "index",
              "type": "uint256"
            },
            {
              "internalType": "bool",
              "name": "isActive",
              "type": "bool"
            }
          ],
          "internalType": "struct SimpleStorage.Hotel[]",
          "name": "",
          "type": "tuple[]"
        }
      ],
      "stateMutability": "view",
      "type": "function",
      "constant": true
    },
    {
      "inputs": [],
      "name": "getEvents",
      "outputs": [
        {
          "components": [
            {
              "internalType": "uint256",
              "name": "id",
              "type": "uint256"
            },
            {
              "internalType": "uint256",
              "name": "userId",
              "type": "uint256"
            },
            {
              "internalType": "uint256",
              "name": "serviceId",
              "type": "uint256"
            },
            {
              "internalType": "uint256",
              "name": "startTime",
              "type": "uint256"
            },
            {
              "internalType": "uint256",
              "name": "endTime",
              "type": "uint256"
            },
            {
              "internalType": "uint256",
              "name": "price",
              "type": "uint256"
            },
            {
              "internalType": "string",
              "name": "heading",
              "type": "string"
            },
            {
              "internalType": "string",
              "name": "description",
              "type": "string"
            },
            {
              "internalType": "uint256",
              "name": "index",
              "type": "uint256"
            },
            {
              "internalType": "bool",
              "name": "isActive",
              "type": "bool"
            }
          ],
          "internalType": "struct SimpleStorage.Event[]",
          "name": "",
          "type": "tuple[]"
        }
      ],
      "stateMutability": "view",
      "type": "function",
      "constant": true
    },
    {
      "inputs": [],
      "name": "getUsers",
      "outputs": [
        {
          "components": [
            {
              "internalType": "uint256",
              "name": "id",
              "type": "uint256"
            },
            {
              "internalType": "string",
              "name": "name",
              "type": "string"
            },
            {
              "internalType": "string",
              "name": "mobileNo",
              "type": "string"
            },
            {
              "internalType": "uint256",
              "name": "loyaltyPoints",
              "type": "uint256"
            },
            {
              "internalType": "uint256",
              "name": "index",
              "type": "uint256"
            }
          ],
          "internalType": "struct SimpleStorage.User[]",
          "name": "",
          "type": "tuple[]"
        }
      ],
      "stateMutability": "view",
      "type": "function",
      "constant": true
    },
    {
      "inputs": [
        {
          "internalType": "uint256",
          "name": "_serviceId",
          "type": "uint256"
        },
        {
          "internalType": "uint256",
          "name": "_hotelId",
          "type": "uint256"
        }
      ],
      "name": "getHotelById",
      "outputs": [
        {
          "components": [
            {
              "internalType": "uint256",
              "name": "id",
              "type": "uint256"
            },
            {
              "internalType": "uint256",
              "name": "userId",
              "type": "uint256"
            },
            {
              "internalType": "uint256",
              "name": "serviceId",
              "type": "uint256"
            },
            {
              "internalType": "uint256",
              "name": "index",
              "type": "uint256"
            }
          ],
          "internalType": "struct SimpleStorage.HotelMinified",
          "name": "",
          "type": "tuple"
        }
      ],
      "stateMutability": "view",
      "type": "function",
      "constant": true
    },
    {
      "inputs": [
        {
          "internalType": "uint256",
          "name": "_serviceId",
          "type": "uint256"
        },
        {
          "internalType": "uint256",
          "name": "_eventId",
          "type": "uint256"
        }
      ],
      "name": "getEventById",
      "outputs": [
        {
          "components": [
            {
              "internalType": "uint256",
              "name": "id",
              "type": "uint256"
            },
            {
              "internalType": "uint256",
              "name": "userId",
              "type": "uint256"
            },
            {
              "internalType": "uint256",
              "name": "serviceId",
              "type": "uint256"
            },
            {
              "internalType": "uint256",
              "name": "index",
              "type": "uint256"
            }
          ],
          "internalType": "struct SimpleStorage.EventMinified",
          "name": "",
          "type": "tuple"
        }
      ],
      "stateMutability": "view",
      "type": "function",
      "constant": true
    },
    {
      "inputs": [
        {
          "internalType": "uint256",
          "name": "_userId",
          "type": "uint256"
        }
      ],
      "name": "getUserById",
      "outputs": [
        {
          "components": [
            {
              "internalType": "uint256",
              "name": "id",
              "type": "uint256"
            },
            {
              "internalType": "string",
              "name": "name",
              "type": "string"
            },
            {
              "internalType": "string",
              "name": "mobileNo",
              "type": "string"
            },
            {
              "internalType": "uint256",
              "name": "loyaltyPoints",
              "type": "uint256"
            },
            {
              "internalType": "uint256",
              "name": "index",
              "type": "uint256"
            }
          ],
          "internalType": "struct SimpleStorage.User",
          "name": "",
          "type": "tuple"
        }
      ],
      "stateMutability": "view",
      "type": "function",
      "constant": true
    },
    {
      "inputs": [
        {
          "internalType": "uint256",
          "name": "index",
          "type": "uint256"
        }
      ],
      "name": "getHotelByIndex",
      "outputs": [
        {
          "components": [
            {
              "internalType": "uint256",
              "name": "id",
              "type": "uint256"
            },
            {
              "internalType": "uint256",
              "name": "userId",
              "type": "uint256"
            },
            {
              "internalType": "uint256",
              "name": "serviceId",
              "type": "uint256"
            },
            {
              "internalType": "string",
              "name": "name",
              "type": "string"
            },
            {
              "internalType": "string",
              "name": "typeofHotel",
              "type": "string"
            },
            {
              "internalType": "string",
              "name": "location",
              "type": "string"
            },
            {
              "internalType": "uint256",
              "name": "index",
              "type": "uint256"
            },
            {
              "internalType": "bool",
              "name": "isActive",
              "type": "bool"
            }
          ],
          "internalType": "struct SimpleStorage.Hotel",
          "name": "",
          "type": "tuple"
        }
      ],
      "stateMutability": "view",
      "type": "function",
      "constant": true
    },
    {
      "inputs": [
        {
          "internalType": "uint256",
          "name": "index",
          "type": "uint256"
        }
      ],
      "name": "getEventByIndex",
      "outputs": [
        {
          "components": [
            {
              "internalType": "uint256",
              "name": "id",
              "type": "uint256"
            },
            {
              "internalType": "uint256",
              "name": "userId",
              "type": "uint256"
            },
            {
              "internalType": "uint256",
              "name": "serviceId",
              "type": "uint256"
            },
            {
              "internalType": "uint256",
              "name": "startTime",
              "type": "uint256"
            },
            {
              "internalType": "uint256",
              "name": "endTime",
              "type": "uint256"
            },
            {
              "internalType": "uint256",
              "name": "price",
              "type": "uint256"
            },
            {
              "internalType": "string",
              "name": "heading",
              "type": "string"
            },
            {
              "internalType": "string",
              "name": "description",
              "type": "string"
            },
            {
              "internalType": "uint256",
              "name": "index",
              "type": "uint256"
            },
            {
              "internalType": "bool",
              "name": "isActive",
              "type": "bool"
            }
          ],
          "internalType": "struct SimpleStorage.Event",
          "name": "",
          "type": "tuple"
        }
      ],
      "stateMutability": "view",
      "type": "function",
      "constant": true
    },
    {
      "inputs": [
        {
          "internalType": "uint256",
          "name": "_index",
          "type": "uint256"
        },
        {
          "internalType": "string",
          "name": "_name",
          "type": "string"
        },
        {
          "internalType": "string",
          "name": "_typeOfHotel",
          "type": "string"
        },
        {
          "internalType": "string",
          "name": "_location",
          "type": "string"
        }
      ],
      "name": "editHotelByIndex",
      "outputs": [
        {
          "components": [
            {
              "internalType": "uint256",
              "name": "id",
              "type": "uint256"
            },
            {
              "internalType": "uint256",
              "name": "userId",
              "type": "uint256"
            },
            {
              "internalType": "uint256",
              "name": "serviceId",
              "type": "uint256"
            },
            {
              "internalType": "string",
              "name": "name",
              "type": "string"
            },
            {
              "internalType": "string",
              "name": "typeofHotel",
              "type": "string"
            },
            {
              "internalType": "string",
              "name": "location",
              "type": "string"
            },
            {
              "internalType": "uint256",
              "name": "index",
              "type": "uint256"
            },
            {
              "internalType": "bool",
              "name": "isActive",
              "type": "bool"
            }
          ],
          "internalType": "struct SimpleStorage.Hotel",
          "name": "",
          "type": "tuple"
        }
      ],
      "stateMutability": "nonpayable",
      "type": "function"
    },
    {
      "inputs": [
        {
          "internalType": "uint256",
          "name": "_index",
          "type": "uint256"
        },
        {
          "internalType": "uint256",
          "name": "_startTime",
          "type": "uint256"
        },
        {
          "internalType": "uint256",
          "name": "_endTime",
          "type": "uint256"
        },
        {
          "internalType": "string",
          "name": "_heading",
          "type": "string"
        },
        {
          "internalType": "string",
          "name": "_description",
          "type": "string"
        }
      ],
      "name": "editEventByIndex",
      "outputs": [
        {
          "components": [
            {
              "internalType": "uint256",
              "name": "id",
              "type": "uint256"
            },
            {
              "internalType": "uint256",
              "name": "userId",
              "type": "uint256"
            },
            {
              "internalType": "uint256",
              "name": "serviceId",
              "type": "uint256"
            },
            {
              "internalType": "uint256",
              "name": "startTime",
              "type": "uint256"
            },
            {
              "internalType": "uint256",
              "name": "endTime",
              "type": "uint256"
            },
            {
              "internalType": "uint256",
              "name": "price",
              "type": "uint256"
            },
            {
              "internalType": "string",
              "name": "heading",
              "type": "string"
            },
            {
              "internalType": "string",
              "name": "description",
              "type": "string"
            },
            {
              "internalType": "uint256",
              "name": "index",
              "type": "uint256"
            },
            {
              "internalType": "bool",
              "name": "isActive",
              "type": "bool"
            }
          ],
          "internalType": "struct SimpleStorage.Event",
          "name": "",
          "type": "tuple"
        }
      ],
      "stateMutability": "nonpayable",
      "type": "function"
    },
    {
      "inputs": [
        {
          "internalType": "uint256",
          "name": "index",
          "type": "uint256"
        }
      ],
      "name": "deleteHotelByIndex",
      "outputs": [
        {
          "internalType": "bool",
          "name": "",
          "type": "bool"
        }
      ],
      "stateMutability": "nonpayable",
      "type": "function"
    },
    {
      "inputs": [
        {
          "internalType": "uint256",
          "name": "index",
          "type": "uint256"
        }
      ],
      "name": "deleteEventByIndex",
      "outputs": [
        {
          "internalType": "bool",
          "name": "",
          "type": "bool"
        }
      ],
      "stateMutability": "nonpayable",
      "type": "function"
    }
  ],
  "bytecode": "0x608060405234801561001057600080fd5b50613f6c806100206000396000f3fe608060405234801561001057600080fd5b506004361061027a576000357c01000000000000000000000000000000000000000000000000000000009004806361c0264911610163578063a4dbd4b7116100e0578063f49cdab9116100a4578063f49cdab914610635578063f954d0d914610658578063fad57afd14610661578063fc90c55414610674578063fce940b414610687578063fd5565991461069a57600080fd5b8063a4dbd4b7146105dd578063b30cbdf6146105e6578063da20ec6a146105f9578063e4039aaa14610602578063ee05ab7f1461061557600080fd5b8063909f850211610127578063909f850214610557578063928fe0531461056a57806393824d6c146105905780639b6b6d3e146105b75780639f4216e8146105ca57600080fd5b806361c02649146104bc57806366174ace146104e65780636ed6da9e1461051b5780637c96886f1461053b578063822619561461054457600080fd5b80631fd365c9116101fc578063404aa8f9116101c0578063404aa8f91461042d578063493280d214610442578063589759191461046b57806358c049bd146104745780635cb312a2146104875780635f820ec61461049a57600080fd5b80631fd365c91461037f5780632826c330146103ba5780632c6eebbc146103c3578063365b98b2146103f65780633a5ad6b81461041a57600080fd5b80630b6f255f116102435780630b6f255f146102f05780630d2e677a14610313578063115cdc5814610328578063158fc6f61461033157806315d0a7ea1461035157600080fd5b8062ce8e3e1461027f57806301e72a471461029d578063033b64c7146102bd578063079eaf34146102d4578063089cdd0c146102e7575b600080fd5b6102876106ad565b60405161029491906133ac565b60405180910390f35b6102b06102ab36600461340d565b61084e565b604051610294919061342f565b6102c660075481565b604051908152602001610294565b6102c66102e236600461353e565b61099a565b6102c660025481565b6103036102fe36600461340d565b610ae9565b60405161029494939291906135a2565b61031b610c46565b604051610294919061366a565b6102c660085481565b61034461033f3660046136be565b610e90565b60405161029491906137d8565b61036461035f36600461340d565b611129565b60408051938452602084019290925290820152606001610294565b61039261038d36600461340d565b61116b565b604080519586526020860194909452928401919091526060830152608082015260a001610294565b6102c660035481565b6103d66103d136600461340d565b6111b9565b604080519485526020850193909352918301526060820152608001610294565b6104096104043660046137f2565b6111ff565b60405161029495949392919061380b565b6102c661042836600461384b565b61133e565b6104356113c8565b604051610294919061387d565b6104556104503660046137f2565b61159e565b6040516102949a999897969594939291906138d1565b6102c660005481565b61030361048236600461340d565b611716565b6102c661049536600461340d565b611732565b6104ad6104a836600461340d565b6117a6565b60405161029493929190613957565b6104cf6104ca3660046137f2565b6117eb565b6040516102949b9a99989796959493929190613994565b6104f96104f436600461340d565b6119f2565b6040805194855260208501939093529183015215156060820152608001610294565b61052e6105293660046137f2565b611a3b565b6040516102949190613a17565b6102c660055481565b61030361055236600461340d565b611bd4565b6102b061056536600461340d565b611bf0565b61057d61057836600461340d565b611d31565b6040516102949796959493929190613a2a565b6105a361059e3660046137f2565b611e18565b604051610294989796959493929190613a6f565b6103446105c53660046137f2565b61200c565b6104096105d83660046137f2565b6121c1565b6102c660065481565b6102c66105f4366004613b8b565b6121f6565b6102c660045481565b6102c6610610366004613d88565b612708565b6106286106233660046137f2565b612b1c565b6040516102949190613e11565b6106486106433660046137f2565b612d45565b6040519015158152602001610294565b6102c660015481565b6103d661066f36600461340d565b612d99565b610628610682366004613e24565b612db5565b6103d661069536600461340d565b6130b6565b6106486106a83660046137f2565b6130d2565b60606009805480602002602001604051908101604052809291908181526020016000905b8282101561084557838290600052602060002090600502016040518060a00160405290816000820154815260200160018201805461070e90613eb6565b80601f016020809104026020016040519081016040528092919081815260200182805461073a90613eb6565b80156107875780601f1061075c57610100808354040283529160200191610787565b820191906000526020600020905b81548152906001019060200180831161076a57829003601f168201915b505050505081526020016002820180546107a090613eb6565b80601f01602080910402602001604051908101604052809291908181526020018280546107cc90613eb6565b80156108195780601f106107ee57610100808354040283529160200191610819565b820191906000526020600020905b8154815290600101906020018083116107fc57829003601f168201915b5050505050815260200160038201548152602001600482015481525050815260200190600101906106d1565b50505050905090565b6108796040518060800160405280600081526020016000815260200160008152602001600081525090565b6000838152600f6020908152604080832080548251818502810185019093528083529192909190849084015b828210156108ff5783829060005260206000209060040201604051806080016040529081600082015481526020016001820154815260200160028201548152602001600382015481525050815260200190600101906108a5565b5050505090506109306040518060800160405280600081526020016000815260200160008152602001600081525090565b60005b825181101561098f578483828151811061094f5761094f613ef3565b6020026020010151600001510361097d5782818151811061097257610972613ef3565b602002602001015191505b8061098781613f0c565b915050610933565b509150505b92915050565b6000805481806109a983613f0c565b90915550506040805160a081018252600080548083526020808401888152848601889052606085018490526009546080860152918352600d815293909120825181559051805192938493610a03926001850192019061311e565b5060408201518051610a1f91600284019160209091019061311e565b506060820151600382015560809091015160049091015560098054600181018255600091909152815160059091027f6e1540171b6c0c960b71a7020d9f60077f6af931a8bbf590da0223dacf75c7af81019182556020808401518051859493610aae937f6e1540171b6c0c960b71a7020d9f60077f6af931a8bbf590da0223dacf75c7b090910192019061311e565b5060408201518051610aca91600284019160209091019061311e565b5060608201516003820155608090910151600490910155519392505050565b60176020528160005260406000208181548110610b0557600080fd5b906000526020600020906004020160009150915050806000015490806001018054610b2f90613eb6565b80601f0160208091040260200160405190810160405280929190818152602001828054610b5b90613eb6565b8015610ba85780601f10610b7d57610100808354040283529160200191610ba8565b820191906000526020600020905b815481529060010190602001808311610b8b57829003601f168201915b505050505090806002018054610bbd90613eb6565b80601f0160208091040260200160405190810160405280929190818152602001828054610be990613eb6565b8015610c365780601f10610c0b57610100808354040283529160200191610c36565b820191906000526020600020905b815481529060010190602001808311610c1957829003601f168201915b5050505050908060030154905084565b6060600a805480602002602001604051908101604052809291908181526020016000905b82821015610845578382906000526020600020906008020160405180610100016040529081600082015481526020016001820154815260200160028201548152602001600382018054610cbc90613eb6565b80601f0160208091040260200160405190810160405280929190818152602001828054610ce890613eb6565b8015610d355780601f10610d0a57610100808354040283529160200191610d35565b820191906000526020600020905b815481529060010190602001808311610d1857829003601f168201915b50505050508152602001600482018054610d4e90613eb6565b80601f0160208091040260200160405190810160405280929190818152602001828054610d7a90613eb6565b8015610dc75780601f10610d9c57610100808354040283529160200191610dc7565b820191906000526020600020905b815481529060010190602001808311610daa57829003601f168201915b50505050508152602001600582018054610de090613eb6565b80601f0160208091040260200160405190810160405280929190818152602001828054610e0c90613eb6565b8015610e595780601f10610e2e57610100808354040283529160200191610e59565b820191906000526020600020905b815481529060010190602001808311610e3c57829003601f168201915b5050509183525050600682015460208083019190915260079092015460ff1615156040909101529082526001929092019101610c6a565b610e986131a2565b6000600c8781548110610ead57610ead613ef3565b90600052602060002090600a020160405180610140016040529081600082015481526020016001820154815260200160028201548152602001600382015481526020016004820154815260200160058201548152602001600682018054610f1390613eb6565b80601f0160208091040260200160405190810160405280929190818152602001828054610f3f90613eb6565b8015610f8c5780601f10610f6157610100808354040283529160200191610f8c565b820191906000526020600020905b815481529060010190602001808311610f6f57829003601f168201915b50505050508152602001600782018054610fa590613eb6565b80601f0160208091040260200160405190810160405280929190818152602001828054610fd190613eb6565b801561101e5780601f10610ff35761010080835404028352916020019161101e565b820191906000526020600020905b81548152906001019060200180831161100157829003601f168201915b50505091835250506008820154602082015260099091015460ff161515604090910152606081018790526080810186905260c0810185905260e08101849052600c805491925082918990811061107657611076613ef3565b90600052602060002090600a0201600082015181600001556020820151816001015560408201518160020155606082015181600301556080820151816004015560a0820151816005015560c08201518160060190805190602001906110dc92919061311e565b5060e082015180516110f891600784019160209091019061311e565b506101008201516008820155610120909101516009909101805460ff19169115159190911790559695505050505050565b6014602052816000526040600020818154811061114557600080fd5b600091825260209091206003909102018054600182015460029092015490935090915083565b6012602052816000526040600020818154811061118757600080fd5b600091825260209091206005909102018054600182015460028301546003840154600490940154929550909350919085565b601060205281600052604060002081815481106111d557600080fd5b60009182526020909120600490910201805460018201546002830154600390930154919450925084565b600d602052600090815260409020805460018201805491929161122190613eb6565b80601f016020809104026020016040519081016040528092919081815260200182805461124d90613eb6565b801561129a5780601f1061126f5761010080835404028352916020019161129a565b820191906000526020600020905b81548152906001019060200180831161127d57829003601f168201915b5050505050908060020180546112af90613eb6565b80601f01602080910402602001604051908101604052809291908181526020018280546112db90613eb6565b80156113285780601f106112fd57610100808354040283529160200191611328565b820191906000526020600020905b81548152906001019060200180831161130b57829003601f168201915b5050505050908060030154908060040154905085565b600580546000918261134f83613f0c565b90915550506040805160a081018252600580548252602080830189815283850198895260608401978852608084019687526000998a5260128252938920805460018082018355918b5291909920925191029091018181559151968201969096559351600285015550905160038301555160049091015590565b6060600c805480602002602001604051908101604052809291908181526020016000905b8282101561084557838290600052602060002090600a02016040518061014001604052908160008201548152602001600182015481526020016002820154815260200160038201548152602001600482015481526020016005820154815260200160068201805461145c90613eb6565b80601f016020809104026020016040519081016040528092919081815260200182805461148890613eb6565b80156114d55780601f106114aa576101008083540402835291602001916114d5565b820191906000526020600020905b8154815290600101906020018083116114b857829003601f168201915b505050505081526020016007820180546114ee90613eb6565b80601f016020809104026020016040519081016040528092919081815260200182805461151a90613eb6565b80156115675780601f1061153c57610100808354040283529160200191611567565b820191906000526020600020905b81548152906001019060200180831161154a57829003601f168201915b5050509183525050600882015460208083019190915260099092015460ff16151560409091015290825260019290920191016113ec565b600c81815481106115ae57600080fd5b90600052602060002090600a02016000915090508060000154908060010154908060020154908060030154908060040154908060050154908060060180546115f590613eb6565b80601f016020809104026020016040519081016040528092919081815260200182805461162190613eb6565b801561166e5780601f106116435761010080835404028352916020019161166e565b820191906000526020600020905b81548152906001019060200180831161165157829003601f168201915b50505050509080600701805461168390613eb6565b80601f01602080910402602001604051908101604052809291908181526020018280546116af90613eb6565b80156116fc5780601f106116d1576101008083540402835291602001916116fc565b820191906000526020600020905b8154815290600101906020018083116116df57829003601f168201915b50505050600883015460099093015491929160ff1690508a565b60186020528160005260406000208181548110610b0557600080fd5b600780546000918261174383613f0c565b90915550506040805160608101825260075481526020808201868152828401958652600096875260148252928620805460018082018355918852919096209151600390910290910181815591519482019490945591516002909201919091555090565b600e60205281600052604060002081815481106117c257600080fd5b600091825260209091206003909102018054600182015460029092015490935090915060ff1683565b600b81815481106117fb57600080fd5b90600052602060002090600c020160009150905080600001549080600101549080600201549080600301805461183090613eb6565b80601f016020809104026020016040519081016040528092919081815260200182805461185c90613eb6565b80156118a95780601f1061187e576101008083540402835291602001916118a9565b820191906000526020600020905b81548152906001019060200180831161188c57829003601f168201915b5050505050908060040180546118be90613eb6565b80601f01602080910402602001604051908101604052809291908181526020018280546118ea90613eb6565b80156119375780601f1061190c57610100808354040283529160200191611937565b820191906000526020600020905b81548152906001019060200180831161191a57829003601f168201915b50505050509080600501549080600601549080600701805461195890613eb6565b80601f016020809104026020016040519081016040528092919081815260200182805461198490613eb6565b80156119d15780601f106119a6576101008083540402835291602001916119d1565b820191906000526020600020905b8154815290600101906020018083116119b457829003601f168201915b505050506008830154600a840154600b909401549293909290915060ff168b565b60136020528160005260406000208181548110611a0e57600080fd5b60009182526020909120600490910201805460018201546002830154600390930154919450925060ff1684565b611a6d6040518060a0016040528060008152602001606081526020016060815260200160008152602001600081525090565b600d60008381526020019081526020016000206040518060a001604052908160008201548152602001600182018054611aa590613eb6565b80601f0160208091040260200160405190810160405280929190818152602001828054611ad190613eb6565b8015611b1e5780601f10611af357610100808354040283529160200191611b1e565b820191906000526020600020905b815481529060010190602001808311611b0157829003601f168201915b50505050508152602001600282018054611b3790613eb6565b80601f0160208091040260200160405190810160405280929190818152602001828054611b6390613eb6565b8015611bb05780601f10611b8557610100808354040283529160200191611bb0565b820191906000526020600020905b815481529060010190602001808311611b9357829003601f168201915b50505050508152602001600382015481526020016004820154815250509050919050565b60166020528160005260406000208181548110610b0557600080fd5b611c1b6040518060800160405280600081526020016000815260200160008152602001600081525090565b600083815260116020908152604080832080548251818502810185019093528083529192909190849084015b82821015611ca1578382906000526020600020906004020160405180608001604052908160008201548152602001600182015481526020016002820154815260200160038201548152505081526020019060010190611c47565b505050509050611cd26040518060800160405280600081526020016000815260200160008152602001600081525090565b60005b825181101561098f5784838281518110611cf157611cf1613ef3565b60200260200101516000015103611d1f57828181518110611d1457611d14613ef3565b602002602001015191505b80611d2981613f0c565b915050611cd5565b60156020528160005260406000208181548110611d4d57600080fd5b906000526020600020906009020160009150915050806000015490806001015490806002015490806003015490806004015490806005018054611d8f90613eb6565b80601f0160208091040260200160405190810160405280929190818152602001828054611dbb90613eb6565b8015611e085780601f10611ddd57610100808354040283529160200191611e08565b820191906000526020600020905b815481529060010190602001808311611deb57829003601f168201915b5050505050908060080154905087565b600a8181548110611e2857600080fd5b9060005260206000209060080201600091509050806000015490806001015490806002015490806003018054611e5d90613eb6565b80601f0160208091040260200160405190810160405280929190818152602001828054611e8990613eb6565b8015611ed65780601f10611eab57610100808354040283529160200191611ed6565b820191906000526020600020905b815481529060010190602001808311611eb957829003601f168201915b505050505090806004018054611eeb90613eb6565b80601f0160208091040260200160405190810160405280929190818152602001828054611f1790613eb6565b8015611f645780601f10611f3957610100808354040283529160200191611f64565b820191906000526020600020905b815481529060010190602001808311611f4757829003601f168201915b505050505090806005018054611f7990613eb6565b80601f0160208091040260200160405190810160405280929190818152602001828054611fa590613eb6565b8015611ff25780601f10611fc757610100808354040283529160200191611ff2565b820191906000526020600020905b815481529060010190602001808311611fd557829003601f168201915b50505050600683015460079093015491929160ff16905088565b6120146131a2565b600c828154811061202757612027613ef3565b90600052602060002090600a02016040518061014001604052908160008201548152602001600182015481526020016002820154815260200160038201548152602001600482015481526020016005820154815260200160068201805461208d90613eb6565b80601f01602080910402602001604051908101604052809291908181526020018280546120b990613eb6565b80156121065780601f106120db57610100808354040283529160200191612106565b820191906000526020600020905b8154815290600101906020018083116120e957829003601f168201915b5050505050815260200160078201805461211f90613eb6565b80601f016020809104026020016040519081016040528092919081815260200182805461214b90613eb6565b80156121985780601f1061216d57610100808354040283529160200191612198565b820191906000526020600020905b81548152906001019060200180831161217b57829003601f168201915b50505091835250506008820154602082015260099091015460ff16151560409091015292915050565b600981815481106121d157600080fd5b6000918252602090912060059091020180546001820180549193509061122190613eb6565b600480546000918261220783613f0c565b90915550506008805490600061221c83613f0c565b90915550506001805490600061223183613f0c565b9091555050604080516060808201835260045480835260208084018b815260008587018190528651610100810188526008548082528185018f90528189018690528187018e905260808083018e905260a083018d9052600a5460c08401819052600160e08501528a519182018b529181529485018f9052978401949094529382019590955293519293909290915b8651811015612416576001548782815181106122dd576122dd613ef3565b6020026020010151600001818152505060085487828151811061230257612302613ef3565b6020026020010151602001818152505060156000600854815260200190815260200160002087828151811061233957612339613ef3565b6020908102919091018101518254600181810185556000948552938390208251600990920201908155818301519381019390935560408101516002840155606081015160038401556080810151600484015560a081015180519193926123a79260058501929091019061311e565b5060c082015180516123c39160068401916020909101906131f7565b5060e082015180516123df9160078401916020909101906131f7565b506101009190910151600890910155600180549060006123fe83613f0c565b9190505550808061240e90613f0c565b9150506122bf565b506000805b6000838152600e6020526040902054811015612516576000838152600e6020526040812080548390811061245157612451613ef3565b60009182526020909120600260039092020181015460ff16908111156124795761247961393e565b03612504576000838152600e60205260408120805460019450600f929190849081106124a7576124a7613ef3565b60009182526020808320600392830201548452838101949094526040928301822080546001818101835591845292859020895160049094020192835593880151938201939093559086015160028201556060860151910155612516565b8061250e81613f0c565b91505061241b565b50806125cf57602080860180516000908152600e8352604080822080546001818101835591845294909220895160039095020193845591518382015590870151600280840180548a9594919260ff199091169190849081111561257b5761257b61393e565b02179055505085516000908152600f60209081526040808320805460018181018355918552938390208851600490950201938455918701519183019190915585015160028201556060850151600390910155505b600a8054600181018255600091909152845160089091027fc65a7bb8d6351c1cf70c95a316cc6a92839c986682d98bc35f958f4883f9d2a881019182556020808701517fc65a7bb8d6351c1cf70c95a316cc6a92839c986682d98bc35f958f4883f9d2a983015560408701517fc65a7bb8d6351c1cf70c95a316cc6a92839c986682d98bc35f958f4883f9d2aa83015560608701518051889493612699937fc65a7bb8d6351c1cf70c95a316cc6a92839c986682d98bc35f958f4883f9d2ab90910192019061311e565b50608082015180516126b591600484019160209091019061311e565b5060a082015180516126d191600584019160209091019061311e565b5060c0820151600682015560e0909101516007909101805460ff191691151591909117905550506004549998505050505050505050565b600480546000918261271983613f0c565b90915550506002805490600061272e83613f0c565b9091555050604080516060808201835260045480835260208084018c8152600285870181905286516101408101885290548082528184018590528188018f90528186018e905260808083018e905260a083018d905260c083018c905260e083018b9052600c546101008401819052600161012085015289519182018a52918152938401949094529582018d90529281019190915290519192916000805b6000838152600e60205260409020548110156128c85760026000848152600e6020526040902080548390811061280357612803613ef3565b60009182526020909120600260039092020181015460ff169081111561282b5761282b61393e565b036128b6576000838152600e6020526040812080546001945060119291908490811061285957612859613ef3565b600091825260208083206003928302015484528381019490945260409283018220805460018181018355918452928590208951600490940201928355938801519382019390935590860151600282015560608601519101556128c8565b806128c081613f0c565b9150506127cb565b508061298157602080860180516000908152600e8352604080822080546001818101835591845294909220895160039095020193845591518382015590870151600280840180548a9594919260ff199091169190849081111561292d5761292d61393e565b02179055505085516000908152601160209081526040808320805460018181018355918552938390208851600490950201938455918701519183019190915585015160028201556060850151600390910155505b600c80546001810182556000919091528451600a9091027fdf6966c971051c3d54ec59162606531493a51404a002842f56009d7e5cf4a8c781019182556020808701517fdf6966c971051c3d54ec59162606531493a51404a002842f56009d7e5cf4a8c883015560408701517fdf6966c971051c3d54ec59162606531493a51404a002842f56009d7e5cf4a8c983015560608701517fdf6966c971051c3d54ec59162606531493a51404a002842f56009d7e5cf4a8ca83015560808701517fdf6966c971051c3d54ec59162606531493a51404a002842f56009d7e5cf4a8cb83015560a08701517fdf6966c971051c3d54ec59162606531493a51404a002842f56009d7e5cf4a8cc83015560c08701518051889493612ac6937fdf6966c971051c3d54ec59162606531493a51404a002842f56009d7e5cf4a8cd90910192019061311e565b5060e08201518051612ae291600784019160209091019061311e565b506101008201516008820155610120909101516009909101805460ff191691151591909117905550506004549a9950505050505050505050565b612b24613250565b600a8281548110612b3757612b37613ef3565b906000526020600020906008020160405180610100016040529081600082015481526020016001820154815260200160028201548152602001600382018054612b7f90613eb6565b80601f0160208091040260200160405190810160405280929190818152602001828054612bab90613eb6565b8015612bf85780601f10612bcd57610100808354040283529160200191612bf8565b820191906000526020600020905b815481529060010190602001808311612bdb57829003601f168201915b50505050508152602001600482018054612c1190613eb6565b80601f0160208091040260200160405190810160405280929190818152602001828054612c3d90613eb6565b8015612c8a5780601f10612c5f57610100808354040283529160200191612c8a565b820191906000526020600020905b815481529060010190602001808311612c6d57829003601f168201915b50505050508152602001600582018054612ca390613eb6565b80601f0160208091040260200160405190810160405280929190818152602001828054612ccf90613eb6565b8015612d1c5780601f10612cf157610100808354040283529160200191612d1c565b820191906000526020600020905b815481529060010190602001808311612cff57829003601f168201915b50505091835250506006820154602082015260079091015460ff16151560409091015292915050565b600a54600090821015612d91576000600a8381548110612d6757612d67613ef3565b60009182526020909120600890910201600701805460ff1916911515919091179055506001919050565b506000919050565b600f60205281600052604060002081815481106111d557600080fd5b612dbd613250565b6000600a8681548110612dd257612dd2613ef3565b906000526020600020906008020160405180610100016040529081600082015481526020016001820154815260200160028201548152602001600382018054612e1a90613eb6565b80601f0160208091040260200160405190810160405280929190818152602001828054612e4690613eb6565b8015612e935780601f10612e6857610100808354040283529160200191612e93565b820191906000526020600020905b815481529060010190602001808311612e7657829003601f168201915b50505050508152602001600482018054612eac90613eb6565b80601f0160208091040260200160405190810160405280929190818152602001828054612ed890613eb6565b8015612f255780601f10612efa57610100808354040283529160200191612f25565b820191906000526020600020905b815481529060010190602001808311612f0857829003601f168201915b50505050508152602001600582018054612f3e90613eb6565b80601f0160208091040260200160405190810160405280929190818152602001828054612f6a90613eb6565b8015612fb75780601f10612f8c57610100808354040283529160200191612fb7565b820191906000526020600020905b815481529060010190602001808311612f9a57829003601f168201915b50505091835250506006820154602082015260079091015460ff1615156040909101526060810186905260a0810184905260808101859052600a805491925082918890811061300857613008613ef3565b9060005260206000209060080201600082015181600001556020820151816001015560408201518160020155606082015181600301908051906020019061305092919061311e565b506080820151805161306c91600484019160209091019061311e565b5060a0820151805161308891600584019160209091019061311e565b5060c0820151600682015560e0909101516007909101805460ff191691151591909117905595945050505050565b601160205281600052604060002081815481106111d557600080fd5b600c54600090821015612d91576000600c83815481106130f4576130f4613ef3565b60009182526020909120600a90910201600901805460ff1916911515919091179055506001919050565b82805461312a90613eb6565b90600052602060002090601f01602090048101928261314c5760008555613192565b82601f1061316557805160ff1916838001178555613192565b82800160010185558215613192579182015b82811115613192578251825591602001919060010190613177565b5061319e929150613297565b5090565b6040518061014001604052806000815260200160008152602001600081526020016000815260200160008152602001600081526020016060815260200160608152602001600081526020016000151581525090565b828054828255906000526020600020908101928215613244579160200282015b82811115613244578251805161323491849160209091019061311e565b5091602001919060010190613217565b5061319e9291506132ac565b604051806101000160405280600081526020016000815260200160008152602001606081526020016060815260200160608152602001600081526020016000151581525090565b5b8082111561319e5760008155600101613298565b8082111561319e5760006132c082826132c9565b506001016132ac565b5080546132d590613eb6565b6000825580601f106132e5575050565b601f0160209004906000526020600020908101906133039190613297565b50565b6000815180845260005b8181101561332c57602081850181015186830182015201613310565b8181111561333e576000602083870101525b50601f01601f19169290920160200192915050565b805182526000602082015160a0602085015261337260a0850182613306565b90506040830151848203604086015261338b8282613306565b91505060608301516060850152608083015160808501528091505092915050565b600060208083018184528085518083526040860191506040848202870101925083870160005b8281101561340057603f198886030184526133ee858351613353565b945092850192908501906001016133d2565b5092979650505050505050565b6000806040838503121561342057600080fd5b50508035926020909101359150565b8151815260208083015190820152604080830151908201526060808301519082015260808101610994565b60e060020a634e487b7102600052604160045260246000fd5b604051610120810167ffffffffffffffff811182821017156134975761349761345a565b60405290565b604051601f8201601f1916810167ffffffffffffffff811182821017156134c6576134c661345a565b604052919050565b600082601f8301126134df57600080fd5b813567ffffffffffffffff8111156134f9576134f961345a565b61350c601f8201601f191660200161349d565b81815284602083860101111561352157600080fd5b816020850160208301376000918101602001919091529392505050565b6000806040838503121561355157600080fd5b823567ffffffffffffffff8082111561356957600080fd5b613575868387016134ce565b9350602085013591508082111561358b57600080fd5b50613598858286016134ce565b9150509250929050565b8481526080602082015260006135bb6080830186613306565b82810360408401526135cd8186613306565b91505082606083015295945050505050565b6000610100825184526020830151602085015260408301516040850152606083015181606086015261361382860182613306565b9150506080830151848203608086015261362d8282613306565b91505060a083015184820360a08601526136478282613306565b91505060c083015160c085015260e0830151151560e08501528091505092915050565b600060208083018184528085518083526040860191506040848202870101925083870160005b8281101561340057603f198886030184526136ac8583516135df565b94509285019290850190600101613690565b600080600080600060a086880312156136d657600080fd5b853594506020860135935060408601359250606086013567ffffffffffffffff8082111561370357600080fd5b61370f89838a016134ce565b9350608088013591508082111561372557600080fd5b50613732888289016134ce565b9150509295509295909350565b6000610140825184526020830151602085015260408301516040850152606083015160608501526080830151608085015260a083015160a085015260c08301518160c086015261379182860182613306565b91505060e083015184820360e08601526137ab8282613306565b915050610100808401518186015250610120808401516137ce8287018215159052565b5090949350505050565b6020815260006137eb602083018461373f565b9392505050565b60006020828403121561380457600080fd5b5035919050565b85815260a06020820152600061382460a0830187613306565b82810360408401526138368187613306565b60608401959095525050608001529392505050565b6000806000806080858703121561386157600080fd5b5050823594602084013594506040840135936060013592509050565b600060208083018184528085518083526040860191506040848202870101925083870160005b8281101561340057603f198886030184526138bf85835161373f565b945092850192908501906001016138a3565b60006101408c83528b60208401528a60408401528960608401528860808401528760a08401528060c084015261390981840188613306565b905082810360e084015261391d8187613306565b61010084019590955250509015156101209091015298975050505050505050565b60e060020a634e487b7102600052602160045260246000fd5b8381526020810183905260608101600383106139865760e060020a634e487b7102600052602160045260246000fd5b826040830152949350505050565b60006101608d83528c60208401528b60408401528060608401526139ba8184018c613306565b905082810360808401526139ce818b613306565b90508860a08401528760c084015282810360e08401526139ee8188613306565b610100840196909652505061012081019290925215156101409091015298975050505050505050565b6020815260006137eb6020830184613353565b87815286602082015285604082015284606082015283608082015260e060a08201526000613a5b60e0830185613306565b90508260c083015298975050505050505050565b60006101008a8352896020840152886040840152806060840152613a9581840189613306565b90508281036080840152613aa98188613306565b905082810360a0840152613abd8187613306565b60c0840195909552505090151560e0909101529695505050505050565b600067ffffffffffffffff821115613af457613af461345a565b5060209081020190565b600082601f830112613b0f57600080fd5b81356020613b24613b1f83613ada565b61349d565b82815291810284018101918181019086841115613b4057600080fd5b8286015b84811015613b8057803567ffffffffffffffff811115613b645760008081fd5b613b728986838b01016134ce565b845250918301918301613b44565b509695505050505050565b600080600080600060a08688031215613ba357600080fd5b8535945067ffffffffffffffff8060208801351115613bc157600080fd5b613bd188602089013589016134ce565b94508060408801351115613be457600080fd5b613bf488604089013589016134ce565b93508060608801351115613c0757600080fd5b613c1788606089013589016134ce565b92508060808801351115613c2a57600080fd5b6080870135870188601f820112613c4057600080fd5b613c4d613b1f8235613ada565b81358082526020808301929181028401018b1015613c6a57600080fd5b602083015b602080853502850101811015613d76578481351115613c8d57600080fd5b80358401610120818e03601f19011215613ca657600080fd5b613cae613473565b6020820135815260408201356020820152606082013560408201526080820135606082015260a082013560808201528660c08301351115613cee57600080fd5b613d018e602060c08501358501016134ce565b60a08201528660e08301351115613d1757600080fd5b613d2a8e602060e0850135850101613afe565b60c0820152866101008301351115613d4157600080fd5b613d558e6020610100850135850101613afe565b60e08201526101209190910135610100820152835260209283019201613c6f565b50809450505050509295509295909350565b60008060008060008060c08789031215613da157600080fd5b86359550602087013594506040870135935060608701359250608087013567ffffffffffffffff80821115613dd557600080fd5b613de18a838b016134ce565b935060a0890135915080821115613df757600080fd5b50613e0489828a016134ce565b9150509295509295509295565b6020815260006137eb60208301846135df565b60008060008060808587031215613e3a57600080fd5b84359350602085013567ffffffffffffffff80821115613e5957600080fd5b613e65888389016134ce565b94506040870135915080821115613e7b57600080fd5b613e87888389016134ce565b93506060870135915080821115613e9d57600080fd5b50613eaa878288016134ce565b91505092959194509250565b600281046001821680613eca57607f821691505b602082108103613eed5760e060020a634e487b7102600052602260045260246000fd5b50919050565b60e060020a634e487b7102600052603260045260246000fd5b600060018201613f2f5760e060020a634e487b7102600052601160045260246000fd5b506001019056fea2646970667358221220cb00fa2a3679d8423785623a93a49773a4c3d711c49909342e460eece0efaf5b64736f6c634300080e0033",
  "immutableReferences": {},
  "source": "// SPDX-License-Identifier: GPL-3.0\npragma solidity ^0.8.9;\n\ncontract SimpleStorage{\n    // -----------------------|   ID COUNTER STORE  |--------------------------------------//\n\n    uint public userId;\n    uint public roomId;\n    uint public eventId;\n    uint public transportId;\n    uint public serviceId;\n    uint public roomBookingId;\n    uint public transportBookingId;\n    uint public eventBookingId;\n    uint public hotelId;\n\n    // -----------------------|   LIST STORE  |--------------------------------------//\n\n    User[] public userList;\n    Hotel[] public hotelList;\n    Transport[] public transportList;\n    Event[] public eventList;\n\n    // -----------------------|   MAPPINGS STORE  |--------------------------------------//\n    // UserId -> User mapping \n    mapping(uint => User) public users;\n\n    // UserId -> Service Array consisting of `SERVICE` objects\n    mapping(uint => Service[]) public userServices;\n\n    // Service Id -> HostelsMinified Array consists of `HOTEL_MINIFIED` objects\n    mapping(uint => HotelMinified[]) public serviceHotels;\n\n    // ServiceId -> Transport Array consisting of `TRANSPORT` objects\n    mapping(uint => TransportMinified[]) public serviceTransports;\n\n    // ServiceId -> Event Array consisting of `EVENT` objects\n    mapping(uint => EventMinified[]) public serviceEvents;\n\n    // UserId -> RoomBooking Array consisting of `ROOMBOOKING` objects\n    mapping(uint => RoomBooking[]) public userRoomBookings;\n\n    // UserId -> TransportBooking Array consisting of `TRANSPORT_BOOKING` objects\n    mapping(uint => TransportBooking[]) public userTransportBookings;\n\n    // UserId -> EventBooking Array consisiting of `EVENT_BOOKING` objects\n    mapping(uint => EventBooking[]) public userEventBookings;\n\n    // hotelId -> Room Array consisiting of `ROOM` objects\n    mapping(uint => Room[]) public hotelRooms;\n\n    // hotelId -> Reviews Array consisiting of `REVIEW` objects\n    mapping(uint => Review[]) public hotelReviews;\n\n    // transportId -> Reviews Array consisiting of `REVIEW` objects\n    mapping(uint => Review[]) public transportReviews;\n\n    // eventId -> Reviews Array consisiting of `REVIEW` objects\n    mapping(uint => Review[]) public eventReviews;\n\n\n    // ---------------------------|   STRUCT LIST  |--------------------------------------//\n    // --| Minified Structs are created in order to save space as well as have a single source of truth  |--//\n\n    /*\n\n        MAPPINGS \n         USER ----- [ID] ----- [ Service ] ---- [ID]  ----- [ HOTEL (For Example) ] -----[ID] -----[ROOM (For Example) ]\n         But here there are more layers of information\n         [Service] ----- [SERVICE_TYPE (Minified)] -----> Contains the index of <SERVICE_TYPE>list\n\n\n        Why make list ?? \n         Easier to get all the values at once. \n         One source of truth because of the introduction of MinifiedStructs\n         Edits and Delete are easier as to just edit the element at the index\n         Delete will just trigger `isActive` to `false` ------> Preserves indexing\n\n        Struct (NORMAL)  V/S  Struct (MINIFIED) -> [As used in HotelMinified, EventMinified, TransportMinified]\n         Struct (NORMAL) is a superset of Struct (MINIFIED).\n         Struct (MINIFIED) and Struct (NORMAL) only shares those properties which can't be changed once created.\n    */\n\n    struct User {\n        uint id;\n        string name;\n        string mobileNo;\n        uint loyaltyPoints;\n        uint index;\n    }\n\n    struct RoomBooking {\n        uint id;\n        uint userId;\n        uint roomId;\n        uint checkIn;\n        uint checkOut;\n    }\n\n    struct TransportBooking {\n        uint id;\n        uint userId;\n        uint transportId;\n        bool isCancelled;\n    }\n\n    struct EventBooking {\n        uint id;\n        uint userId;\n        uint eventId;\n    }\n\n    struct Service {\n        uint id;\n        uint userId;\n        SERVICE_TYPE serviceType;\n    }\n\n    enum SERVICE_TYPE{ HOTEL, TRANSPORT, EVENT }\n\n    struct Hotel {\n        uint id; // -> not recommended to use this for GET (May be used in future)\n        uint userId;\n        uint serviceId;\n        string name;\n        string typeofHotel;\n        string location;\n        uint index; // DB Indexing for Pipeline\n        bool isActive;\n    }\n\n    struct HotelMinified {\n        uint id; // -> not recommended to use this for GET (May be used in future)\n        uint userId;\n        uint serviceId;\n        uint index; // DB Indexing for Pipeline\n    }\n\n    struct Room {\n        uint id;\n        uint hotelId;\n        uint userId;\n        uint numOfTotalRooms;\n        uint numOfRoomsBooked;\n        string roomType;\n        string[] roomPics;\n        string[] facilities;\n        uint index;\n    }\n\n    struct Transport {\n        uint id;\n        uint userId;\n        uint serviceId;\n        string origin;\n        string destination;\n        uint startTime;\n        uint endTime;\n        string transportType;\n        uint fare;\n        string[] facilities;\n        uint index;\n        bool isActive;\n    }\n\n    struct TransportMinified {\n        uint id;\n        uint userId;\n        uint serviceId;\n        uint index;\n    }\n\n    struct Event {\n        uint id;\n        uint userId;\n        uint serviceId;\n        uint startTime;\n        uint endTime;\n        uint price;\n        string heading;\n        string description;\n        uint index;\n        bool isActive;\n    }\n\n    struct EventMinified {\n        uint id;\n        uint userId;\n        uint serviceId;\n        uint index;\n    }\n\n    struct Review {\n        uint id;\n        string title;\n        string description;\n        uint starCount;\n    }\n\n    // -----------------------|   Add User  |--------------------------------------//\n\n    function addUser(string memory _name, string memory _mobileNo) public returns(uint) {\n        userId++;\n        User memory newUser = User(userId,_name,_mobileNo,0,userList.length);\n        users[userId] = newUser;\n        userList.push(newUser);\n        return newUser.id;\n    }\n\n    // -----------------------|  Add Bookings [ POST ]  |--------------------------------------//\n\n    function addRoomBooking(uint _userId, uint _roomId, uint _checkIn, uint _checkOut) public returns(uint) {\n        roomBookingId++;\n        RoomBooking memory newRoomBooking = RoomBooking(roomBookingId,_userId,_roomId,_checkIn,_checkOut);\n        userRoomBookings[newRoomBooking.userId].push(newRoomBooking);\n        return newRoomBooking.id;\n    }\n\n    // function addTransportBooking(uint _userId, uint _transportId) public returns(uint) {\n    //     transportBookingId++;\n    //     TransportBooking memory newTransportBooking = TransportBooking(transportBookingId,_userId,_transportId,false);\n    //     userTransportBookings[newTransportBooking.userId].push(newTransportBooking);\n    //     return newTransportBooking.id;\n    // }\n\n    function addEventBooking( uint _userId, uint _eventId) public returns(uint) {\n        eventBookingId++;\n        EventBooking memory newEventBooking = EventBooking(eventBookingId,_userId,_eventId);\n        userEventBookings[newEventBooking.userId].push(newEventBooking);\n        return newEventBooking.id;\n    }\n\n    // -----------------------|   Add Services   |--------------------------------------//\n\n    function addHotel(uint _userId, string memory _name,string memory _typeofHotel, string memory _location, Room[] memory _rooms) public returns (uint) {\n        // Incrementing serivceId for uniqueness\n        serviceId++;\n\n        // Incrementing hotelid for uniqueness\n        hotelId++;\n\n        // Incrementing roomId for uniqueness\n        roomId++;\n\n        Service memory newService = Service(serviceId,_userId,SERVICE_TYPE.HOTEL);\n        Hotel memory newHotel = Hotel(hotelId,_userId,serviceId,_name,_typeofHotel,_location, hotelList.length,true);\n        HotelMinified memory newHotelMinified = HotelMinified(hotelId,_userId,serviceId,hotelList.length);\n        uint currentUserId = newService.userId;\n\n         // Updating the hotelId from the room and pushing\n        for (uint i = 0; i < _rooms.length; i++) {\n            _rooms[i].id = roomId;\n            _rooms[i].hotelId = hotelId;\n            hotelRooms[hotelId].push(_rooms[i]);\n            roomId++;\n        }\n\n        // Checking if the same service type exists\n        // If exists then change the exisiting object\n        // Here we are applying as it is not expensive. At max it will iterate 3 times\n        bool serviceTypeFound = false;\n        for(uint i=0;i<userServices[currentUserId].length;i++){\n            if(userServices[currentUserId][i].serviceType == SERVICE_TYPE.HOTEL){\n                serviceTypeFound = true;\n                serviceHotels[userServices[currentUserId][i].id].push(newHotelMinified);\n                break;\n            }\n        }\n\n        // If the same service type doesn't exist then\n        if(!serviceTypeFound){\n            userServices[newService.userId].push(newService);\n            serviceHotels[newService.id].push(newHotelMinified);\n        }\n        \n        // Lastly add to the list\n        hotelList.push(newHotel);\n\n        // This wil send the serviceId\n        return serviceId;\n    }\n\n    function addEvent(uint _userId, uint _startTime, uint _endTime, uint _price, string memory _heading, string memory _description) public returns (uint) {\n        // Incrementing serivceId for uniqueness\n        serviceId++;\n\n        // Incrementing eventId for uniqueness\n        eventId++;\n\n        Service memory newService = Service(serviceId,_userId,SERVICE_TYPE.EVENT);\n        Event memory newEvent = Event(eventId, serviceId, _userId,_startTime,_endTime,_price,_heading,_description, eventList.length,true);\n        EventMinified memory newEventMinified = EventMinified(eventId, serviceId, _userId,eventList.length);\n        uint currentUserId = newService.userId;\n\n\n        // Checking if the same service type exists\n        // If exists then change the exisiting object\n        // Here we are applying as it is not expensive. At max it will iterate 3 times\n        bool serviceTypeFound = false;\n        for(uint i=0;i<userServices[currentUserId].length;i++){\n            if(userServices[currentUserId][i].serviceType == SERVICE_TYPE.EVENT){\n                serviceTypeFound = true;\n                serviceEvents[userServices[currentUserId][i].id].push(newEventMinified);\n                break;\n            }\n        }\n\n        // If the same service type doesn't exist then\n        if(!serviceTypeFound){\n            userServices[newService.userId].push(newService);\n            serviceEvents[newService.id].push(newEventMinified);\n        }\n\n        // Lastly add to the list\n        eventList.push(newEvent);\n\n        // This wil send the serviceId\n        return serviceId;\n    }\n\n    // function addTransport(uint _userId, string memory _origin,string memory _destination, uint _startTime, uint _endTime, string memory _transportType, uint _fare, string[] memory _facilities) public returns (uint) {\n    //     // Incrementing serivceId for uniqueness\n    //     serviceId++;\n\n    //     // Incrementing transportId for uniqueness\n    //     transportId++;\n\n    //     Service memory newService = Service(serviceId,_userId,SERVICE_TYPE.TRANSPORT);\n    //     Transport memory newTransport = Transport(transportId,serviceId,_userId,_origin,_destination,_startTime,_endTime,_transportType,_fare,_facilities,transportList.length,true);\n    //     TransportMinified memory newTransportMinified = TransportMinified(transportId,serviceId,_userId,transportList.length);\n    //     // Incrementing serivceId for uniqueness)\n    //     uint currentUserId = newService.userId;\n    //     newService.id = serviceId;\n    //     newService.id = transportId;\n\n\n    //     // Checking if the same service type exists\n    //     // If exists then change the exisiting object\n    //     // Here we are applying as it is not expensive. At max it will iterate 3 times\n    //     bool serviceTypeFound = false;\n    //     for(uint i=0;i<userServices[currentUserId].length;i++){\n    //         if(userServices[currentUserId][i].serviceType == SERVICE_TYPE.TRANSPORT){\n    //             serviceTypeFound = true;\n    //             serviceTransports[userServices[currentUserId][i].id].push(newTransportMinified);\n    //             break;\n    //         }\n    //     }\n\n    //     // If the same service type doesn't exist then\n    //     if(!serviceTypeFound){\n    //         userServices[newService.userId].push(newService);\n    //         serviceTransports[newService.id].push(newTransportMinified);\n    //     }\n\n    //     // Lastly add to the list\n    //     transportList.push(newTransport);\n\n    //     // This wil send the serviceId\n    //     return serviceId;\n    // }\n\n    // -----------------------|  GET LIST  |--------------------------------------//\n\n    function getHotels() public view returns (Hotel[] memory) {\n        return hotelList;\n    }\n\n    function getEvents() public view returns (Event[] memory) {\n        return eventList;\n    }\n\n    // function getTransports() public view returns (Transport[] memory) {\n    //     return transportList;\n    // }\n\n    function getUsers() public view returns (User[] memory) {\n        return userList;\n    }\n\n    // -----------------------|  GET by ID [ Slow + shows minified result + Not Recommended (Use Index Shown Below) ]  |--------------------------------------//\n\n    function getHotelById(uint _serviceId, uint _hotelId) public view returns (HotelMinified memory) {\n        HotelMinified[] memory userHotels  = serviceHotels[_serviceId];\n        HotelMinified memory requestedHotel;\n        for(uint i=0;i<userHotels.length;i++){\n            if(userHotels[i].id == _hotelId){\n                requestedHotel = userHotels[i];\n            }\n        }\n        return requestedHotel;\n    }\n\n    function getEventById(uint _serviceId, uint _eventId) public view returns (EventMinified memory) {\n        EventMinified[] memory userEvents  = serviceEvents[_serviceId];\n        EventMinified memory requestedEvent;\n        for(uint i=0;i<userEvents.length;i++){\n            if(userEvents[i].id == _eventId){\n                requestedEvent = userEvents[i];\n            }\n        }\n        return requestedEvent;\n    }\n\n    // function getTransportById(uint _serviceId, uint _hotelId) public view returns (TransportMinified memory) {\n    //     TransportMinified[] memory userTransport  = serviceTransports[_serviceId];\n    //     TransportMinified memory requestedTransport;\n    //     for(uint i=0;i<userTransport.length;i++){\n    //         if(userTransport[i].id == _hotelId){\n    //             requestedTransport = userTransport[i];\n    //         }\n    //     }\n    //     return requestedTransport;\n    // }\n\n    function getUserById(uint _userId) public view returns (User memory) {\n        return users[_userId];\n    }\n\n    // -----------------------|  GET by Index [ Faster  +  Recommended ]  |--------------------------------------//\n\n    function getHotelByIndex(uint index) public view returns (Hotel memory) {\n        return hotelList[index];\n    }\n\n    function getEventByIndex(uint index) public view returns (Event memory) {\n        return eventList[index];\n    }\n\n    // function getTransportByIndex(uint index) public view returns (Transport memory) {\n    //     return transportList[index];\n    // }\n\n    // -----------------------|  PUT  |--------------------------------------//\n\n    function editHotelByIndex(uint _index, string memory _name, string memory _typeOfHotel, string memory _location) public returns (Hotel memory) {\n        Hotel memory updatedHotel = hotelList[_index];\n        updatedHotel.name = _name;\n        updatedHotel.location = _location;\n        updatedHotel.typeofHotel = _typeOfHotel;\n        hotelList[_index] = updatedHotel;\n        return updatedHotel;\n    }\n\n    function editEventByIndex(uint _index, uint _startTime, uint _endTime, string memory _heading, string memory _description) public returns (Event memory) {\n        Event memory updatedEvent = eventList[_index];\n        updatedEvent.startTime = _startTime;\n        updatedEvent.endTime = _endTime;\n        updatedEvent.heading = _heading;\n        updatedEvent.description = _description;\n        eventList[_index] = updatedEvent;\n        return updatedEvent;\n    }\n\n    // function editTransportByIndex(uint _index, string memory _origin, string memory _destination, uint _startTime, uint _endTime, string memory _transportType, uint _fare, string[] memory _facilities) public returns (Transport memory) {\n    //     Transport memory updatedTransport = transportList[_index];\n    //     updatedTransport.startTime = _startTime;\n    //     updatedTransport.endTime = _endTime;\n    //     updatedTransport.origin = _origin;\n    //     updatedTransport.destination = _destination;\n    //     updatedTransport.transportType = _transportType;\n    //     updatedTransport.fare = _fare;\n    //     updatedTransport.facilities = _facilities;\n    //     transportList[_index] = updatedTransport;\n    //     return updatedTransport;\n    // }\n\n    // -----------------------|  DELETE  |--------------------------------------//\n\n    function deleteHotelByIndex(uint index) public returns (bool) {\n        if(index < hotelList.length){\n            hotelList[index].isActive = false;\n            return true;\n        }else{\n            return false;\n        }\n    }\n\n    function deleteEventByIndex(uint index) public returns (bool) {\n        if(index < eventList.length){\n            eventList[index].isActive = false;\n            return true;\n        }else{\n            return false;\n        }\n    }\n\n    // function deleteTransportByIndex(uint index) public returns (bool) {\n    //     if(index < transportList.length){\n    //         transportList[index].isActive = false;\n    //         return true;\n    //     }else{\n    //         return false;\n    //     }\n    // }\n}",
  "sourcePath": "/Users/shubhrajyotidey/Documents/CODE/Blockchain/first-project/truffle/contracts/SimpleStorage.sol",
  "compiler": {
    "name": "solc",
    "version": "0.8.14+commit.80d49f37.Emscripten.clang"
  },
  "schemaVersion": "3.4.10",
  "updatedAt": "2022-10-15T04:59:19.821Z",
  "networkType": "ethereum",
  "devdoc": {
    "kind": "dev",
    "methods": {},
    "version": 1
  },
  "userdoc": {
    "kind": "user",
    "methods": {},
    "version": 1
  }
}