{
  "contractName": "SimpleStorage",
  "abi": [
    {
      "inputs": [
        {
          "internalType": "address",
          "name": "",
          "type": "address"
        }
      ],
      "name": "accountCreated",
      "outputs": [
        {
          "internalType": "uint256",
          "name": "",
          "type": "uint256"
        }
      ],
      "stateMutability": "view",
      "type": "function",
      "constant": true
    },
    {
      "inputs": [],
      "name": "eventBookingId",
      "outputs": [
        {
          "internalType": "uint256",
          "name": "",
          "type": "uint256"
        }
      ],
      "stateMutability": "view",
      "type": "function",
      "constant": true
    },
    {
      "inputs": [],
      "name": "eventId",
      "outputs": [
        {
          "internalType": "uint256",
          "name": "",
          "type": "uint256"
        }
      ],
      "stateMutability": "view",
      "type": "function",
      "constant": true
    },
    {
      "inputs": [
        {
          "internalType": "uint256",
          "name": "",
          "type": "uint256"
        }
      ],
      "name": "eventList",
      "outputs": [
        {
          "internalType": "uint256",
          "name": "id",
          "type": "uint256"
        },
        {
          "internalType": "uint256",
          "name": "userId",
          "type": "uint256"
        },
        {
          "internalType": "uint256",
          "name": "serviceId",
          "type": "uint256"
        },
        {
          "internalType": "uint256",
          "name": "startTime",
          "type": "uint256"
        },
        {
          "internalType": "uint256",
          "name": "endTime",
          "type": "uint256"
        },
        {
          "internalType": "uint256",
          "name": "price",
          "type": "uint256"
        },
        {
          "internalType": "string",
          "name": "heading",
          "type": "string"
        },
        {
          "internalType": "string",
          "name": "description",
          "type": "string"
        },
        {
          "internalType": "uint256",
          "name": "index",
          "type": "uint256"
        },
        {
          "internalType": "bool",
          "name": "isActive",
          "type": "bool"
        }
      ],
      "stateMutability": "view",
      "type": "function",
      "constant": true
    },
    {
      "inputs": [
        {
          "internalType": "uint256",
          "name": "",
          "type": "uint256"
        },
        {
          "internalType": "uint256",
          "name": "",
          "type": "uint256"
        }
      ],
      "name": "eventReviews",
      "outputs": [
        {
          "internalType": "uint256",
          "name": "id",
          "type": "uint256"
        },
        {
          "internalType": "string",
          "name": "title",
          "type": "string"
        },
        {
          "internalType": "string",
          "name": "description",
          "type": "string"
        },
        {
          "internalType": "uint256",
          "name": "starCount",
          "type": "uint256"
        }
      ],
      "stateMutability": "view",
      "type": "function",
      "constant": true
    },
    {
      "inputs": [],
      "name": "hotelId",
      "outputs": [
        {
          "internalType": "uint256",
          "name": "",
          "type": "uint256"
        }
      ],
      "stateMutability": "view",
      "type": "function",
      "constant": true
    },
    {
      "inputs": [
        {
          "internalType": "uint256",
          "name": "",
          "type": "uint256"
        }
      ],
      "name": "hotelList",
      "outputs": [
        {
          "internalType": "uint256",
          "name": "id",
          "type": "uint256"
        },
        {
          "internalType": "uint256",
          "name": "userId",
          "type": "uint256"
        },
        {
          "internalType": "uint256",
          "name": "serviceId",
          "type": "uint256"
        },
        {
          "internalType": "string",
          "name": "name",
          "type": "string"
        },
        {
          "internalType": "string",
          "name": "typeofHotel",
          "type": "string"
        },
        {
          "internalType": "string",
          "name": "location",
          "type": "string"
        },
        {
          "internalType": "uint256",
          "name": "index",
          "type": "uint256"
        },
        {
          "internalType": "bool",
          "name": "isActive",
          "type": "bool"
        }
      ],
      "stateMutability": "view",
      "type": "function",
      "constant": true
    },
    {
      "inputs": [
        {
          "internalType": "uint256",
          "name": "",
          "type": "uint256"
        },
        {
          "internalType": "uint256",
          "name": "",
          "type": "uint256"
        }
      ],
      "name": "hotelReviews",
      "outputs": [
        {
          "internalType": "uint256",
          "name": "id",
          "type": "uint256"
        },
        {
          "internalType": "string",
          "name": "title",
          "type": "string"
        },
        {
          "internalType": "string",
          "name": "description",
          "type": "string"
        },
        {
          "internalType": "uint256",
          "name": "starCount",
          "type": "uint256"
        }
      ],
      "stateMutability": "view",
      "type": "function",
      "constant": true
    },
    {
      "inputs": [
        {
          "internalType": "uint256",
          "name": "",
          "type": "uint256"
        },
        {
          "internalType": "uint256",
          "name": "",
          "type": "uint256"
        }
      ],
      "name": "hotelRooms",
      "outputs": [
        {
          "internalType": "uint256",
          "name": "id",
          "type": "uint256"
        },
        {
          "internalType": "uint256",
          "name": "hotelId",
          "type": "uint256"
        },
        {
          "internalType": "uint256",
          "name": "userId",
          "type": "uint256"
        },
        {
          "internalType": "uint256",
          "name": "numOfTotalRooms",
          "type": "uint256"
        },
        {
          "internalType": "uint256",
          "name": "numOfRoomsBooked",
          "type": "uint256"
        },
        {
          "internalType": "string",
          "name": "roomType",
          "type": "string"
        },
        {
          "internalType": "uint256",
          "name": "index",
          "type": "uint256"
        }
      ],
      "stateMutability": "view",
      "type": "function",
      "constant": true
    },
    {
      "inputs": [],
      "name": "roomBookingId",
      "outputs": [
        {
          "internalType": "uint256",
          "name": "",
          "type": "uint256"
        }
      ],
      "stateMutability": "view",
      "type": "function",
      "constant": true
    },
    {
      "inputs": [],
      "name": "roomId",
      "outputs": [
        {
          "internalType": "uint256",
          "name": "",
          "type": "uint256"
        }
      ],
      "stateMutability": "view",
      "type": "function",
      "constant": true
    },
    {
      "inputs": [
        {
          "internalType": "uint256",
          "name": "",
          "type": "uint256"
        },
        {
          "internalType": "uint256",
          "name": "",
          "type": "uint256"
        }
      ],
      "name": "serviceEvents",
      "outputs": [
        {
          "internalType": "uint256",
          "name": "id",
          "type": "uint256"
        },
        {
          "internalType": "uint256",
          "name": "userId",
          "type": "uint256"
        },
        {
          "internalType": "uint256",
          "name": "serviceId",
          "type": "uint256"
        },
        {
          "internalType": "uint256",
          "name": "index",
          "type": "uint256"
        }
      ],
      "stateMutability": "view",
      "type": "function",
      "constant": true
    },
    {
      "inputs": [
        {
          "internalType": "uint256",
          "name": "",
          "type": "uint256"
        },
        {
          "internalType": "uint256",
          "name": "",
          "type": "uint256"
        }
      ],
      "name": "serviceHotels",
      "outputs": [
        {
          "internalType": "uint256",
          "name": "id",
          "type": "uint256"
        },
        {
          "internalType": "uint256",
          "name": "userId",
          "type": "uint256"
        },
        {
          "internalType": "uint256",
          "name": "serviceId",
          "type": "uint256"
        },
        {
          "internalType": "uint256",
          "name": "index",
          "type": "uint256"
        }
      ],
      "stateMutability": "view",
      "type": "function",
      "constant": true
    },
    {
      "inputs": [],
      "name": "serviceId",
      "outputs": [
        {
          "internalType": "uint256",
          "name": "",
          "type": "uint256"
        }
      ],
      "stateMutability": "view",
      "type": "function",
      "constant": true
    },
    {
      "inputs": [
        {
          "internalType": "uint256",
          "name": "",
          "type": "uint256"
        },
        {
          "internalType": "uint256",
          "name": "",
          "type": "uint256"
        }
      ],
      "name": "serviceTransports",
      "outputs": [
        {
          "internalType": "uint256",
          "name": "id",
          "type": "uint256"
        },
        {
          "internalType": "uint256",
          "name": "userId",
          "type": "uint256"
        },
        {
          "internalType": "uint256",
          "name": "serviceId",
          "type": "uint256"
        },
        {
          "internalType": "uint256",
          "name": "index",
          "type": "uint256"
        }
      ],
      "stateMutability": "view",
      "type": "function",
      "constant": true
    },
    {
      "inputs": [],
      "name": "transportBookingId",
      "outputs": [
        {
          "internalType": "uint256",
          "name": "",
          "type": "uint256"
        }
      ],
      "stateMutability": "view",
      "type": "function",
      "constant": true
    },
    {
      "inputs": [],
      "name": "transportId",
      "outputs": [
        {
          "internalType": "uint256",
          "name": "",
          "type": "uint256"
        }
      ],
      "stateMutability": "view",
      "type": "function",
      "constant": true
    },
    {
      "inputs": [
        {
          "internalType": "uint256",
          "name": "",
          "type": "uint256"
        }
      ],
      "name": "transportList",
      "outputs": [
        {
          "internalType": "uint256",
          "name": "id",
          "type": "uint256"
        },
        {
          "internalType": "uint256",
          "name": "userId",
          "type": "uint256"
        },
        {
          "internalType": "uint256",
          "name": "serviceId",
          "type": "uint256"
        },
        {
          "internalType": "string",
          "name": "origin",
          "type": "string"
        },
        {
          "internalType": "string",
          "name": "destination",
          "type": "string"
        },
        {
          "internalType": "uint256",
          "name": "startTime",
          "type": "uint256"
        },
        {
          "internalType": "uint256",
          "name": "endTime",
          "type": "uint256"
        },
        {
          "internalType": "string",
          "name": "transportType",
          "type": "string"
        },
        {
          "internalType": "uint256",
          "name": "fare",
          "type": "uint256"
        },
        {
          "internalType": "uint256",
          "name": "index",
          "type": "uint256"
        },
        {
          "internalType": "bool",
          "name": "isActive",
          "type": "bool"
        }
      ],
      "stateMutability": "view",
      "type": "function",
      "constant": true
    },
    {
      "inputs": [
        {
          "internalType": "uint256",
          "name": "",
          "type": "uint256"
        },
        {
          "internalType": "uint256",
          "name": "",
          "type": "uint256"
        }
      ],
      "name": "transportReviews",
      "outputs": [
        {
          "internalType": "uint256",
          "name": "id",
          "type": "uint256"
        },
        {
          "internalType": "string",
          "name": "title",
          "type": "string"
        },
        {
          "internalType": "string",
          "name": "description",
          "type": "string"
        },
        {
          "internalType": "uint256",
          "name": "starCount",
          "type": "uint256"
        }
      ],
      "stateMutability": "view",
      "type": "function",
      "constant": true
    },
    {
      "inputs": [
        {
          "internalType": "uint256",
          "name": "",
          "type": "uint256"
        },
        {
          "internalType": "uint256",
          "name": "",
          "type": "uint256"
        }
      ],
      "name": "userEventBookings",
      "outputs": [
        {
          "internalType": "uint256",
          "name": "id",
          "type": "uint256"
        },
        {
          "internalType": "uint256",
          "name": "userId",
          "type": "uint256"
        },
        {
          "internalType": "uint256",
          "name": "eventId",
          "type": "uint256"
        }
      ],
      "stateMutability": "view",
      "type": "function",
      "constant": true
    },
    {
      "inputs": [],
      "name": "userId",
      "outputs": [
        {
          "internalType": "uint256",
          "name": "",
          "type": "uint256"
        }
      ],
      "stateMutability": "view",
      "type": "function",
      "constant": true
    },
    {
      "inputs": [
        {
          "internalType": "uint256",
          "name": "",
          "type": "uint256"
        }
      ],
      "name": "userList",
      "outputs": [
        {
          "internalType": "uint256",
          "name": "id",
          "type": "uint256"
        },
        {
          "internalType": "string",
          "name": "name",
          "type": "string"
        },
        {
          "internalType": "string",
          "name": "mobileNo",
          "type": "string"
        },
        {
          "internalType": "uint256",
          "name": "loyaltyPoints",
          "type": "uint256"
        },
        {
          "internalType": "uint256",
          "name": "index",
          "type": "uint256"
        }
      ],
      "stateMutability": "view",
      "type": "function",
      "constant": true
    },
    {
      "inputs": [
        {
          "internalType": "uint256",
          "name": "",
          "type": "uint256"
        },
        {
          "internalType": "uint256",
          "name": "",
          "type": "uint256"
        }
      ],
      "name": "userRoomBookings",
      "outputs": [
        {
          "internalType": "uint256",
          "name": "id",
          "type": "uint256"
        },
        {
          "internalType": "uint256",
          "name": "userId",
          "type": "uint256"
        },
        {
          "internalType": "uint256",
          "name": "roomId",
          "type": "uint256"
        },
        {
          "internalType": "uint256",
          "name": "checkIn",
          "type": "uint256"
        },
        {
          "internalType": "uint256",
          "name": "checkOut",
          "type": "uint256"
        }
      ],
      "stateMutability": "view",
      "type": "function",
      "constant": true
    },
    {
      "inputs": [
        {
          "internalType": "uint256",
          "name": "",
          "type": "uint256"
        },
        {
          "internalType": "uint256",
          "name": "",
          "type": "uint256"
        }
      ],
      "name": "userServices",
      "outputs": [
        {
          "internalType": "uint256",
          "name": "id",
          "type": "uint256"
        },
        {
          "internalType": "uint256",
          "name": "userId",
          "type": "uint256"
        },
        {
          "internalType": "enum SimpleStorage.SERVICE_TYPE",
          "name": "serviceType",
          "type": "uint8"
        }
      ],
      "stateMutability": "view",
      "type": "function",
      "constant": true
    },
    {
      "inputs": [
        {
          "internalType": "uint256",
          "name": "",
          "type": "uint256"
        },
        {
          "internalType": "uint256",
          "name": "",
          "type": "uint256"
        }
      ],
      "name": "userTransportBookings",
      "outputs": [
        {
          "internalType": "uint256",
          "name": "id",
          "type": "uint256"
        },
        {
          "internalType": "uint256",
          "name": "userId",
          "type": "uint256"
        },
        {
          "internalType": "uint256",
          "name": "transportId",
          "type": "uint256"
        },
        {
          "internalType": "bool",
          "name": "isCancelled",
          "type": "bool"
        }
      ],
      "stateMutability": "view",
      "type": "function",
      "constant": true
    },
    {
      "inputs": [
        {
          "internalType": "uint256",
          "name": "",
          "type": "uint256"
        }
      ],
      "name": "users",
      "outputs": [
        {
          "internalType": "uint256",
          "name": "id",
          "type": "uint256"
        },
        {
          "internalType": "string",
          "name": "name",
          "type": "string"
        },
        {
          "internalType": "string",
          "name": "mobileNo",
          "type": "string"
        },
        {
          "internalType": "uint256",
          "name": "loyaltyPoints",
          "type": "uint256"
        },
        {
          "internalType": "uint256",
          "name": "index",
          "type": "uint256"
        }
      ],
      "stateMutability": "view",
      "type": "function",
      "constant": true
    },
    {
      "inputs": [
        {
          "internalType": "string",
          "name": "_name",
          "type": "string"
        },
        {
          "internalType": "string",
          "name": "_mobileNo",
          "type": "string"
        }
      ],
      "name": "addUser",
      "outputs": [
        {
          "internalType": "uint256",
          "name": "",
          "type": "uint256"
        }
      ],
      "stateMutability": "nonpayable",
      "type": "function"
    },
    {
      "inputs": [
        {
          "internalType": "uint256",
          "name": "_userId",
          "type": "uint256"
        },
        {
          "internalType": "uint256",
          "name": "_roomId",
          "type": "uint256"
        },
        {
          "internalType": "uint256",
          "name": "_checkIn",
          "type": "uint256"
        },
        {
          "internalType": "uint256",
          "name": "_checkOut",
          "type": "uint256"
        }
      ],
      "name": "addRoomBooking",
      "outputs": [
        {
          "internalType": "uint256",
          "name": "",
          "type": "uint256"
        }
      ],
      "stateMutability": "nonpayable",
      "type": "function"
    },
    {
      "inputs": [
        {
          "internalType": "uint256",
          "name": "_userId",
          "type": "uint256"
        },
        {
          "internalType": "uint256",
          "name": "_eventId",
          "type": "uint256"
        }
      ],
      "name": "addEventBooking",
      "outputs": [
        {
          "internalType": "uint256",
          "name": "",
          "type": "uint256"
        }
      ],
      "stateMutability": "nonpayable",
      "type": "function"
    },
    {
      "inputs": [
        {
          "internalType": "uint256",
          "name": "_userId",
          "type": "uint256"
        },
        {
          "internalType": "string",
          "name": "_name",
          "type": "string"
        },
        {
          "internalType": "string",
          "name": "_typeofHotel",
          "type": "string"
        },
        {
          "internalType": "string",
          "name": "_location",
          "type": "string"
        },
        {
          "components": [
            {
              "internalType": "uint256",
              "name": "id",
              "type": "uint256"
            },
            {
              "internalType": "uint256",
              "name": "hotelId",
              "type": "uint256"
            },
            {
              "internalType": "uint256",
              "name": "userId",
              "type": "uint256"
            },
            {
              "internalType": "uint256",
              "name": "numOfTotalRooms",
              "type": "uint256"
            },
            {
              "internalType": "uint256",
              "name": "numOfRoomsBooked",
              "type": "uint256"
            },
            {
              "internalType": "string",
              "name": "roomType",
              "type": "string"
            },
            {
              "internalType": "string[]",
              "name": "roomPics",
              "type": "string[]"
            },
            {
              "internalType": "string[]",
              "name": "facilities",
              "type": "string[]"
            },
            {
              "internalType": "uint256",
              "name": "index",
              "type": "uint256"
            }
          ],
          "internalType": "struct SimpleStorage.Room[]",
          "name": "_rooms",
          "type": "tuple[]"
        }
      ],
      "name": "addHotel",
      "outputs": [
        {
          "internalType": "uint256",
          "name": "",
          "type": "uint256"
        }
      ],
      "stateMutability": "nonpayable",
      "type": "function"
    },
    {
      "inputs": [
        {
          "internalType": "uint256",
          "name": "_userId",
          "type": "uint256"
        },
        {
          "internalType": "uint256",
          "name": "_startTime",
          "type": "uint256"
        },
        {
          "internalType": "uint256",
          "name": "_endTime",
          "type": "uint256"
        },
        {
          "internalType": "uint256",
          "name": "_price",
          "type": "uint256"
        },
        {
          "internalType": "string",
          "name": "_heading",
          "type": "string"
        },
        {
          "internalType": "string",
          "name": "_description",
          "type": "string"
        }
      ],
      "name": "addEvent",
      "outputs": [
        {
          "internalType": "uint256",
          "name": "",
          "type": "uint256"
        }
      ],
      "stateMutability": "nonpayable",
      "type": "function"
    },
    {
      "inputs": [],
      "name": "getHotels",
      "outputs": [
        {
          "components": [
            {
              "internalType": "uint256",
              "name": "id",
              "type": "uint256"
            },
            {
              "internalType": "uint256",
              "name": "userId",
              "type": "uint256"
            },
            {
              "internalType": "uint256",
              "name": "serviceId",
              "type": "uint256"
            },
            {
              "internalType": "string",
              "name": "name",
              "type": "string"
            },
            {
              "internalType": "string",
              "name": "typeofHotel",
              "type": "string"
            },
            {
              "internalType": "string",
              "name": "location",
              "type": "string"
            },
            {
              "internalType": "uint256",
              "name": "index",
              "type": "uint256"
            },
            {
              "internalType": "bool",
              "name": "isActive",
              "type": "bool"
            }
          ],
          "internalType": "struct SimpleStorage.Hotel[]",
          "name": "",
          "type": "tuple[]"
        }
      ],
      "stateMutability": "view",
      "type": "function",
      "constant": true
    },
    {
      "inputs": [],
      "name": "getEvents",
      "outputs": [
        {
          "components": [
            {
              "internalType": "uint256",
              "name": "id",
              "type": "uint256"
            },
            {
              "internalType": "uint256",
              "name": "userId",
              "type": "uint256"
            },
            {
              "internalType": "uint256",
              "name": "serviceId",
              "type": "uint256"
            },
            {
              "internalType": "uint256",
              "name": "startTime",
              "type": "uint256"
            },
            {
              "internalType": "uint256",
              "name": "endTime",
              "type": "uint256"
            },
            {
              "internalType": "uint256",
              "name": "price",
              "type": "uint256"
            },
            {
              "internalType": "string",
              "name": "heading",
              "type": "string"
            },
            {
              "internalType": "string",
              "name": "description",
              "type": "string"
            },
            {
              "internalType": "uint256",
              "name": "index",
              "type": "uint256"
            },
            {
              "internalType": "bool",
              "name": "isActive",
              "type": "bool"
            }
          ],
          "internalType": "struct SimpleStorage.Event[]",
          "name": "",
          "type": "tuple[]"
        }
      ],
      "stateMutability": "view",
      "type": "function",
      "constant": true
    },
    {
      "inputs": [],
      "name": "getUsers",
      "outputs": [
        {
          "components": [
            {
              "internalType": "uint256",
              "name": "id",
              "type": "uint256"
            },
            {
              "internalType": "string",
              "name": "name",
              "type": "string"
            },
            {
              "internalType": "string",
              "name": "mobileNo",
              "type": "string"
            },
            {
              "internalType": "uint256",
              "name": "loyaltyPoints",
              "type": "uint256"
            },
            {
              "internalType": "uint256",
              "name": "index",
              "type": "uint256"
            }
          ],
          "internalType": "struct SimpleStorage.User[]",
          "name": "",
          "type": "tuple[]"
        }
      ],
      "stateMutability": "view",
      "type": "function",
      "constant": true
    },
    {
      "inputs": [],
      "name": "getUserLoginStatus",
      "outputs": [
        {
          "internalType": "uint256",
          "name": "",
          "type": "uint256"
        }
      ],
      "stateMutability": "view",
      "type": "function",
      "constant": true
    },
    {
      "inputs": [
        {
          "internalType": "uint256",
          "name": "_serviceId",
          "type": "uint256"
        },
        {
          "internalType": "uint256",
          "name": "_hotelId",
          "type": "uint256"
        }
      ],
      "name": "getHotelById",
      "outputs": [
        {
          "components": [
            {
              "internalType": "uint256",
              "name": "id",
              "type": "uint256"
            },
            {
              "internalType": "uint256",
              "name": "userId",
              "type": "uint256"
            },
            {
              "internalType": "uint256",
              "name": "serviceId",
              "type": "uint256"
            },
            {
              "internalType": "uint256",
              "name": "index",
              "type": "uint256"
            }
          ],
          "internalType": "struct SimpleStorage.HotelMinified",
          "name": "",
          "type": "tuple"
        }
      ],
      "stateMutability": "view",
      "type": "function",
      "constant": true
    },
    {
      "inputs": [
        {
          "internalType": "uint256",
          "name": "_serviceId",
          "type": "uint256"
        },
        {
          "internalType": "uint256",
          "name": "_eventId",
          "type": "uint256"
        }
      ],
      "name": "getEventById",
      "outputs": [
        {
          "components": [
            {
              "internalType": "uint256",
              "name": "id",
              "type": "uint256"
            },
            {
              "internalType": "uint256",
              "name": "userId",
              "type": "uint256"
            },
            {
              "internalType": "uint256",
              "name": "serviceId",
              "type": "uint256"
            },
            {
              "internalType": "uint256",
              "name": "index",
              "type": "uint256"
            }
          ],
          "internalType": "struct SimpleStorage.EventMinified",
          "name": "",
          "type": "tuple"
        }
      ],
      "stateMutability": "view",
      "type": "function",
      "constant": true
    },
    {
      "inputs": [
        {
          "internalType": "uint256",
          "name": "_userId",
          "type": "uint256"
        }
      ],
      "name": "getUserById",
      "outputs": [
        {
          "components": [
            {
              "internalType": "uint256",
              "name": "id",
              "type": "uint256"
            },
            {
              "internalType": "string",
              "name": "name",
              "type": "string"
            },
            {
              "internalType": "string",
              "name": "mobileNo",
              "type": "string"
            },
            {
              "internalType": "uint256",
              "name": "loyaltyPoints",
              "type": "uint256"
            },
            {
              "internalType": "uint256",
              "name": "index",
              "type": "uint256"
            }
          ],
          "internalType": "struct SimpleStorage.User",
          "name": "",
          "type": "tuple"
        }
      ],
      "stateMutability": "view",
      "type": "function",
      "constant": true
    },
    {
      "inputs": [
        {
          "internalType": "uint256",
          "name": "index",
          "type": "uint256"
        }
      ],
      "name": "getHotelByIndex",
      "outputs": [
        {
          "components": [
            {
              "internalType": "uint256",
              "name": "id",
              "type": "uint256"
            },
            {
              "internalType": "uint256",
              "name": "userId",
              "type": "uint256"
            },
            {
              "internalType": "uint256",
              "name": "serviceId",
              "type": "uint256"
            },
            {
              "internalType": "string",
              "name": "name",
              "type": "string"
            },
            {
              "internalType": "string",
              "name": "typeofHotel",
              "type": "string"
            },
            {
              "internalType": "string",
              "name": "location",
              "type": "string"
            },
            {
              "internalType": "uint256",
              "name": "index",
              "type": "uint256"
            },
            {
              "internalType": "bool",
              "name": "isActive",
              "type": "bool"
            }
          ],
          "internalType": "struct SimpleStorage.Hotel",
          "name": "",
          "type": "tuple"
        }
      ],
      "stateMutability": "view",
      "type": "function",
      "constant": true
    },
    {
      "inputs": [
        {
          "internalType": "uint256",
          "name": "index",
          "type": "uint256"
        }
      ],
      "name": "getEventByIndex",
      "outputs": [
        {
          "components": [
            {
              "internalType": "uint256",
              "name": "id",
              "type": "uint256"
            },
            {
              "internalType": "uint256",
              "name": "userId",
              "type": "uint256"
            },
            {
              "internalType": "uint256",
              "name": "serviceId",
              "type": "uint256"
            },
            {
              "internalType": "uint256",
              "name": "startTime",
              "type": "uint256"
            },
            {
              "internalType": "uint256",
              "name": "endTime",
              "type": "uint256"
            },
            {
              "internalType": "uint256",
              "name": "price",
              "type": "uint256"
            },
            {
              "internalType": "string",
              "name": "heading",
              "type": "string"
            },
            {
              "internalType": "string",
              "name": "description",
              "type": "string"
            },
            {
              "internalType": "uint256",
              "name": "index",
              "type": "uint256"
            },
            {
              "internalType": "bool",
              "name": "isActive",
              "type": "bool"
            }
          ],
          "internalType": "struct SimpleStorage.Event",
          "name": "",
          "type": "tuple"
        }
      ],
      "stateMutability": "view",
      "type": "function",
      "constant": true
    },
    {
      "inputs": [
        {
          "internalType": "uint256",
          "name": "_index",
          "type": "uint256"
        },
        {
          "internalType": "string",
          "name": "_name",
          "type": "string"
        },
        {
          "internalType": "string",
          "name": "_typeOfHotel",
          "type": "string"
        },
        {
          "internalType": "string",
          "name": "_location",
          "type": "string"
        }
      ],
      "name": "editHotelByIndex",
      "outputs": [
        {
          "components": [
            {
              "internalType": "uint256",
              "name": "id",
              "type": "uint256"
            },
            {
              "internalType": "uint256",
              "name": "userId",
              "type": "uint256"
            },
            {
              "internalType": "uint256",
              "name": "serviceId",
              "type": "uint256"
            },
            {
              "internalType": "string",
              "name": "name",
              "type": "string"
            },
            {
              "internalType": "string",
              "name": "typeofHotel",
              "type": "string"
            },
            {
              "internalType": "string",
              "name": "location",
              "type": "string"
            },
            {
              "internalType": "uint256",
              "name": "index",
              "type": "uint256"
            },
            {
              "internalType": "bool",
              "name": "isActive",
              "type": "bool"
            }
          ],
          "internalType": "struct SimpleStorage.Hotel",
          "name": "",
          "type": "tuple"
        }
      ],
      "stateMutability": "nonpayable",
      "type": "function"
    },
    {
      "inputs": [
        {
          "internalType": "uint256",
          "name": "_index",
          "type": "uint256"
        },
        {
          "internalType": "uint256",
          "name": "_startTime",
          "type": "uint256"
        },
        {
          "internalType": "uint256",
          "name": "_endTime",
          "type": "uint256"
        },
        {
          "internalType": "string",
          "name": "_heading",
          "type": "string"
        },
        {
          "internalType": "string",
          "name": "_description",
          "type": "string"
        }
      ],
      "name": "editEventByIndex",
      "outputs": [
        {
          "components": [
            {
              "internalType": "uint256",
              "name": "id",
              "type": "uint256"
            },
            {
              "internalType": "uint256",
              "name": "userId",
              "type": "uint256"
            },
            {
              "internalType": "uint256",
              "name": "serviceId",
              "type": "uint256"
            },
            {
              "internalType": "uint256",
              "name": "startTime",
              "type": "uint256"
            },
            {
              "internalType": "uint256",
              "name": "endTime",
              "type": "uint256"
            },
            {
              "internalType": "uint256",
              "name": "price",
              "type": "uint256"
            },
            {
              "internalType": "string",
              "name": "heading",
              "type": "string"
            },
            {
              "internalType": "string",
              "name": "description",
              "type": "string"
            },
            {
              "internalType": "uint256",
              "name": "index",
              "type": "uint256"
            },
            {
              "internalType": "bool",
              "name": "isActive",
              "type": "bool"
            }
          ],
          "internalType": "struct SimpleStorage.Event",
          "name": "",
          "type": "tuple"
        }
      ],
      "stateMutability": "nonpayable",
      "type": "function"
    },
    {
      "inputs": [
        {
          "internalType": "uint256",
          "name": "index",
          "type": "uint256"
        }
      ],
      "name": "deleteHotelByIndex",
      "outputs": [
        {
          "internalType": "bool",
          "name": "",
          "type": "bool"
        }
      ],
      "stateMutability": "nonpayable",
      "type": "function"
    },
    {
      "inputs": [
        {
          "internalType": "uint256",
          "name": "index",
          "type": "uint256"
        }
      ],
      "name": "deleteEventByIndex",
      "outputs": [
        {
          "internalType": "bool",
          "name": "",
          "type": "bool"
        }
      ],
      "stateMutability": "nonpayable",
      "type": "function"
    }
  ],
  "bytecode": "0x608060405234801561001057600080fd5b50613ff9806100206000396000f3fe608060405234801561001057600080fd5b5060043610610290576000357c01000000000000000000000000000000000000000000000000000000009004806366174ace1161016e578063b2385442116100e0578063f49cdab9116100a4578063f49cdab914610680578063f954d0d9146106a3578063fad57afd146106ac578063fc90c554146106bf578063fce940b4146106d2578063fd556599146106e557600080fd5b8063b23854421461061c578063b30cbdf614610631578063da20ec6a14610644578063e4039aaa1461064d578063ee05ab7f1461066057600080fd5b8063909f850211610132578063909f85021461058d578063928fe053146105a057806393824d6c146105c65780639b6b6d3e146105ed5780639f4216e814610600578063a4dbd4b71461061357600080fd5b806366174ace146104fc5780636ed6da9e146105315780637c96886f14610551578063822619561461055a578063903b7ac41461056d57600080fd5b80632826c33011610207578063493280d2116101cb578063493280d214610458578063589759191461048157806358c049bd1461048a5780635cb312a21461049d5780635f820ec6146104b057806361c02649146104d257600080fd5b80632826c330146103d05780632c6eebbc146103d9578063365b98b21461040c5780633a5ad6b814610430578063404aa8f91461044357600080fd5b80630b6f255f116102595780630b6f255f146103065780630d2e677a14610329578063115cdc581461033e578063158fc6f61461034757806315d0a7ea146103675780631fd365c91461039557600080fd5b8062ce8e3e1461029557806301e72a47146102b3578063033b64c7146102d3578063079eaf34146102ea578063089cdd0c146102fd575b600080fd5b61029d6106f8565b6040516102aa9190613403565b60405180910390f35b6102c66102c1366004613464565b610899565b6040516102aa9190613486565b6102dc60075481565b6040519081526020016102aa565b6102dc6102f8366004613595565b6109e5565b6102dc60025481565b610319610314366004613464565b610b40565b6040516102aa94939291906135f9565b610331610c9d565b6040516102aa91906136c1565b6102dc60085481565b61035a610355366004613715565b610ee7565b6040516102aa919061382f565b61037a610375366004613464565b611180565b604080519384526020840192909252908201526060016102aa565b6103a86103a3366004613464565b6111c2565b604080519586526020860194909452928401919091526060830152608082015260a0016102aa565b6102dc60035481565b6103ec6103e7366004613464565b611210565b6040805194855260208501939093529183015260608201526080016102aa565b61041f61041a366004613849565b611256565b6040516102aa959493929190613862565b6102dc61043e3660046138a2565b611395565b61044b61141f565b6040516102aa91906138d4565b61046b610466366004613849565b6115f5565b6040516102aa9a99989796959493929190613928565b6102dc60005481565b610319610498366004613464565b61176d565b6102dc6104ab366004613464565b611789565b6104c36104be366004613464565b6117fd565b6040516102aa939291906139ae565b6104e56104e0366004613849565b611842565b6040516102aa9b9a999897969594939291906139eb565b61050f61050a366004613464565b611a49565b60408051948552602085019390935291830152151560608201526080016102aa565b61054461053f366004613849565b611a92565b6040516102aa9190613a6e565b6102dc60055481565b610319610568366004613464565b611c2b565b6102dc61057b366004613a81565b600e6020526000908152604090205481565b6102c661059b366004613464565b611c47565b6105b36105ae366004613464565b611d88565b6040516102aa9796959493929190613ab7565b6105d96105d4366004613849565b611e6f565b6040516102aa989796959493929190613afc565b61035a6105fb366004613849565b612063565b61041f61060e366004613849565b612218565b6102dc60065481565b336000908152600e60205260409020546102dc565b6102dc61063f366004613c18565b61224d565b6102dc60045481565b6102dc61065b366004613e15565b61275f565b61067361066e366004613849565b612b73565b6040516102aa9190613e9e565b61069361068e366004613849565b612d9c565b60405190151581526020016102aa565b6102dc60015481565b6103ec6106ba366004613464565b612df0565b6106736106cd366004613eb1565b612e0c565b6103ec6106e0366004613464565b61310d565b6106936106f3366004613849565b613129565b60606009805480602002602001604051908101604052809291908181526020016000905b8282101561089057838290600052602060002090600502016040518060a00160405290816000820154815260200160018201805461075990613f43565b80601f016020809104026020016040519081016040528092919081815260200182805461078590613f43565b80156107d25780601f106107a7576101008083540402835291602001916107d2565b820191906000526020600020905b8154815290600101906020018083116107b557829003601f168201915b505050505081526020016002820180546107eb90613f43565b80601f016020809104026020016040519081016040528092919081815260200182805461081790613f43565b80156108645780601f1061083957610100808354040283529160200191610864565b820191906000526020600020905b81548152906001019060200180831161084757829003601f168201915b50505050508152602001600382015481526020016004820154815250508152602001906001019061071c565b50505050905090565b6108c46040518060800160405280600081526020016000815260200160008152602001600081525090565b600083815260106020908152604080832080548251818502810185019093528083529192909190849084015b8282101561094a5783829060005260206000209060040201604051806080016040529081600082015481526020016001820154815260200160028201548152602001600382015481525050815260200190600101906108f0565b50505050905061097b6040518060800160405280600081526020016000815260200160008152602001600081525090565b60005b82518110156109da578483828151811061099a5761099a613f80565b602002602001015160000151036109c8578281815181106109bd576109bd613f80565b602002602001015191505b806109d281613f99565b91505061097e565b509150505b92915050565b6000805481806109f483613f99565b909155505060008054338252600e60209081526040808420839055805160a081018252838152808301888152818301889052606082018690526009546080830152938552600d835293208351815591518051849392610a5a926001850192910190613175565b5060408201518051610a76916002840191602090910190613175565b506060820151600382015560809091015160049091015560098054600181018255600091909152815160059091027f6e1540171b6c0c960b71a7020d9f60077f6af931a8bbf590da0223dacf75c7af81019182556020808401518051859493610b05937f6e1540171b6c0c960b71a7020d9f60077f6af931a8bbf590da0223dacf75c7b0909101920190613175565b5060408201518051610b21916002840191602090910190613175565b5060608201516003820155608090910151600490910155519392505050565b60186020528160005260406000208181548110610b5c57600080fd5b906000526020600020906004020160009150915050806000015490806001018054610b8690613f43565b80601f0160208091040260200160405190810160405280929190818152602001828054610bb290613f43565b8015610bff5780601f10610bd457610100808354040283529160200191610bff565b820191906000526020600020905b815481529060010190602001808311610be257829003601f168201915b505050505090806002018054610c1490613f43565b80601f0160208091040260200160405190810160405280929190818152602001828054610c4090613f43565b8015610c8d5780601f10610c6257610100808354040283529160200191610c8d565b820191906000526020600020905b815481529060010190602001808311610c7057829003601f168201915b5050505050908060030154905084565b6060600a805480602002602001604051908101604052809291908181526020016000905b82821015610890578382906000526020600020906008020160405180610100016040529081600082015481526020016001820154815260200160028201548152602001600382018054610d1390613f43565b80601f0160208091040260200160405190810160405280929190818152602001828054610d3f90613f43565b8015610d8c5780601f10610d6157610100808354040283529160200191610d8c565b820191906000526020600020905b815481529060010190602001808311610d6f57829003601f168201915b50505050508152602001600482018054610da590613f43565b80601f0160208091040260200160405190810160405280929190818152602001828054610dd190613f43565b8015610e1e5780601f10610df357610100808354040283529160200191610e1e565b820191906000526020600020905b815481529060010190602001808311610e0157829003601f168201915b50505050508152602001600582018054610e3790613f43565b80601f0160208091040260200160405190810160405280929190818152602001828054610e6390613f43565b8015610eb05780601f10610e8557610100808354040283529160200191610eb0565b820191906000526020600020905b815481529060010190602001808311610e9357829003601f168201915b5050509183525050600682015460208083019190915260079092015460ff1615156040909101529082526001929092019101610cc1565b610eef6131f9565b6000600c8781548110610f0457610f04613f80565b90600052602060002090600a020160405180610140016040529081600082015481526020016001820154815260200160028201548152602001600382015481526020016004820154815260200160058201548152602001600682018054610f6a90613f43565b80601f0160208091040260200160405190810160405280929190818152602001828054610f9690613f43565b8015610fe35780601f10610fb857610100808354040283529160200191610fe3565b820191906000526020600020905b815481529060010190602001808311610fc657829003601f168201915b50505050508152602001600782018054610ffc90613f43565b80601f016020809104026020016040519081016040528092919081815260200182805461102890613f43565b80156110755780601f1061104a57610100808354040283529160200191611075565b820191906000526020600020905b81548152906001019060200180831161105857829003601f168201915b50505091835250506008820154602082015260099091015460ff161515604090910152606081018790526080810186905260c0810185905260e08101849052600c80549192508291899081106110cd576110cd613f80565b90600052602060002090600a0201600082015181600001556020820151816001015560408201518160020155606082015181600301556080820151816004015560a0820151816005015560c0820151816006019080519060200190611133929190613175565b5060e0820151805161114f916007840191602090910190613175565b506101008201516008820155610120909101516009909101805460ff19169115159190911790559695505050505050565b6015602052816000526040600020818154811061119c57600080fd5b600091825260209091206003909102018054600182015460029092015490935090915083565b601360205281600052604060002081815481106111de57600080fd5b600091825260209091206005909102018054600182015460028301546003840154600490940154929550909350919085565b6011602052816000526040600020818154811061122c57600080fd5b60009182526020909120600490910201805460018201546002830154600390930154919450925084565b600d602052600090815260409020805460018201805491929161127890613f43565b80601f01602080910402602001604051908101604052809291908181526020018280546112a490613f43565b80156112f15780601f106112c6576101008083540402835291602001916112f1565b820191906000526020600020905b8154815290600101906020018083116112d457829003601f168201915b50505050509080600201805461130690613f43565b80601f016020809104026020016040519081016040528092919081815260200182805461133290613f43565b801561137f5780601f106113545761010080835404028352916020019161137f565b820191906000526020600020905b81548152906001019060200180831161136257829003601f168201915b5050505050908060030154908060040154905085565b60058054600091826113a683613f99565b90915550506040805160a081018252600580548252602080830189815283850198895260608401978852608084019687526000998a5260138252938920805460018082018355918b5291909920925191029091018181559151968201969096559351600285015550905160038301555160049091015590565b6060600c805480602002602001604051908101604052809291908181526020016000905b8282101561089057838290600052602060002090600a0201604051806101400160405290816000820154815260200160018201548152602001600282015481526020016003820154815260200160048201548152602001600582015481526020016006820180546114b390613f43565b80601f01602080910402602001604051908101604052809291908181526020018280546114df90613f43565b801561152c5780601f106115015761010080835404028352916020019161152c565b820191906000526020600020905b81548152906001019060200180831161150f57829003601f168201915b5050505050815260200160078201805461154590613f43565b80601f016020809104026020016040519081016040528092919081815260200182805461157190613f43565b80156115be5780601f10611593576101008083540402835291602001916115be565b820191906000526020600020905b8154815290600101906020018083116115a157829003601f168201915b5050509183525050600882015460208083019190915260099092015460ff1615156040909101529082526001929092019101611443565b600c818154811061160557600080fd5b90600052602060002090600a020160009150905080600001549080600101549080600201549080600301549080600401549080600501549080600601805461164c90613f43565b80601f016020809104026020016040519081016040528092919081815260200182805461167890613f43565b80156116c55780601f1061169a576101008083540402835291602001916116c5565b820191906000526020600020905b8154815290600101906020018083116116a857829003601f168201915b5050505050908060070180546116da90613f43565b80601f016020809104026020016040519081016040528092919081815260200182805461170690613f43565b80156117535780601f1061172857610100808354040283529160200191611753565b820191906000526020600020905b81548152906001019060200180831161173657829003601f168201915b50505050600883015460099093015491929160ff1690508a565b60196020528160005260406000208181548110610b5c57600080fd5b600780546000918261179a83613f99565b90915550506040805160608101825260075481526020808201868152828401958652600096875260158252928620805460018082018355918852919096209151600390910290910181815591519482019490945591516002909201919091555090565b600f602052816000526040600020818154811061181957600080fd5b600091825260209091206003909102018054600182015460029092015490935090915060ff1683565b600b818154811061185257600080fd5b90600052602060002090600c020160009150905080600001549080600101549080600201549080600301805461188790613f43565b80601f01602080910402602001604051908101604052809291908181526020018280546118b390613f43565b80156119005780601f106118d557610100808354040283529160200191611900565b820191906000526020600020905b8154815290600101906020018083116118e357829003601f168201915b50505050509080600401805461191590613f43565b80601f016020809104026020016040519081016040528092919081815260200182805461194190613f43565b801561198e5780601f106119635761010080835404028352916020019161198e565b820191906000526020600020905b81548152906001019060200180831161197157829003601f168201915b5050505050908060050154908060060154908060070180546119af90613f43565b80601f01602080910402602001604051908101604052809291908181526020018280546119db90613f43565b8015611a285780601f106119fd57610100808354040283529160200191611a28565b820191906000526020600020905b815481529060010190602001808311611a0b57829003601f168201915b505050506008830154600a840154600b909401549293909290915060ff168b565b60146020528160005260406000208181548110611a6557600080fd5b60009182526020909120600490910201805460018201546002830154600390930154919450925060ff1684565b611ac46040518060a0016040528060008152602001606081526020016060815260200160008152602001600081525090565b600d60008381526020019081526020016000206040518060a001604052908160008201548152602001600182018054611afc90613f43565b80601f0160208091040260200160405190810160405280929190818152602001828054611b2890613f43565b8015611b755780601f10611b4a57610100808354040283529160200191611b75565b820191906000526020600020905b815481529060010190602001808311611b5857829003601f168201915b50505050508152602001600282018054611b8e90613f43565b80601f0160208091040260200160405190810160405280929190818152602001828054611bba90613f43565b8015611c075780601f10611bdc57610100808354040283529160200191611c07565b820191906000526020600020905b815481529060010190602001808311611bea57829003601f168201915b50505050508152602001600382015481526020016004820154815250509050919050565b60176020528160005260406000208181548110610b5c57600080fd5b611c726040518060800160405280600081526020016000815260200160008152602001600081525090565b600083815260126020908152604080832080548251818502810185019093528083529192909190849084015b82821015611cf8578382906000526020600020906004020160405180608001604052908160008201548152602001600182015481526020016002820154815260200160038201548152505081526020019060010190611c9e565b505050509050611d296040518060800160405280600081526020016000815260200160008152602001600081525090565b60005b82518110156109da5784838281518110611d4857611d48613f80565b60200260200101516000015103611d7657828181518110611d6b57611d6b613f80565b602002602001015191505b80611d8081613f99565b915050611d2c565b60166020528160005260406000208181548110611da457600080fd5b906000526020600020906009020160009150915050806000015490806001015490806002015490806003015490806004015490806005018054611de690613f43565b80601f0160208091040260200160405190810160405280929190818152602001828054611e1290613f43565b8015611e5f5780601f10611e3457610100808354040283529160200191611e5f565b820191906000526020600020905b815481529060010190602001808311611e4257829003601f168201915b5050505050908060080154905087565b600a8181548110611e7f57600080fd5b9060005260206000209060080201600091509050806000015490806001015490806002015490806003018054611eb490613f43565b80601f0160208091040260200160405190810160405280929190818152602001828054611ee090613f43565b8015611f2d5780601f10611f0257610100808354040283529160200191611f2d565b820191906000526020600020905b815481529060010190602001808311611f1057829003601f168201915b505050505090806004018054611f4290613f43565b80601f0160208091040260200160405190810160405280929190818152602001828054611f6e90613f43565b8015611fbb5780601f10611f9057610100808354040283529160200191611fbb565b820191906000526020600020905b815481529060010190602001808311611f9e57829003601f168201915b505050505090806005018054611fd090613f43565b80601f0160208091040260200160405190810160405280929190818152602001828054611ffc90613f43565b80156120495780601f1061201e57610100808354040283529160200191612049565b820191906000526020600020905b81548152906001019060200180831161202c57829003601f168201915b50505050600683015460079093015491929160ff16905088565b61206b6131f9565b600c828154811061207e5761207e613f80565b90600052602060002090600a0201604051806101400160405290816000820154815260200160018201548152602001600282015481526020016003820154815260200160048201548152602001600582015481526020016006820180546120e490613f43565b80601f016020809104026020016040519081016040528092919081815260200182805461211090613f43565b801561215d5780601f106121325761010080835404028352916020019161215d565b820191906000526020600020905b81548152906001019060200180831161214057829003601f168201915b5050505050815260200160078201805461217690613f43565b80601f01602080910402602001604051908101604052809291908181526020018280546121a290613f43565b80156121ef5780601f106121c4576101008083540402835291602001916121ef565b820191906000526020600020905b8154815290600101906020018083116121d257829003601f168201915b50505091835250506008820154602082015260099091015460ff16151560409091015292915050565b6009818154811061222857600080fd5b6000918252602090912060059091020180546001820180549193509061127890613f43565b600480546000918261225e83613f99565b90915550506008805490600061227383613f99565b90915550506001805490600061228883613f99565b9091555050604080516060808201835260045480835260208084018b815260008587018190528651610100810188526008548082528185018f90528189018690528187018e905260808083018e905260a083018d9052600a5460c08401819052600160e08501528a519182018b529181529485018f9052978401949094529382019590955293519293909290915b865181101561246d5760015487828151811061233457612334613f80565b6020026020010151600001818152505060085487828151811061235957612359613f80565b6020026020010151602001818152505060166000600854815260200190815260200160002087828151811061239057612390613f80565b6020908102919091018101518254600181810185556000948552938390208251600990920201908155818301519381019390935560408101516002840155606081015160038401556080810151600484015560a081015180519193926123fe92600585019290910190613175565b5060c0820151805161241a91600684019160209091019061324e565b5060e0820151805161243691600784019160209091019061324e565b5061010091909101516008909101556001805490600061245583613f99565b9190505550808061246590613f99565b915050612316565b506000805b6000838152600f602052604090205481101561256d576000838152600f602052604081208054839081106124a8576124a8613f80565b60009182526020909120600260039092020181015460ff16908111156124d0576124d0613995565b0361255b576000838152600f602052604081208054600194506010929190849081106124fe576124fe613f80565b6000918252602080832060039283020154845283810194909452604092830182208054600181810183559184529285902089516004909402019283559388015193820193909355908601516002820155606086015191015561256d565b8061256581613f99565b915050612472565b508061262657602080860180516000908152600f8352604080822080546001818101835591845294909220895160039095020193845591518382015590870151600280840180548a9594919260ff19909116919084908111156125d2576125d2613995565b02179055505085516000908152601060209081526040808320805460018181018355918552938390208851600490950201938455918701519183019190915585015160028201556060850151600390910155505b600a8054600181018255600091909152845160089091027fc65a7bb8d6351c1cf70c95a316cc6a92839c986682d98bc35f958f4883f9d2a881019182556020808701517fc65a7bb8d6351c1cf70c95a316cc6a92839c986682d98bc35f958f4883f9d2a983015560408701517fc65a7bb8d6351c1cf70c95a316cc6a92839c986682d98bc35f958f4883f9d2aa830155606087015180518894936126f0937fc65a7bb8d6351c1cf70c95a316cc6a92839c986682d98bc35f958f4883f9d2ab909101920190613175565b506080820151805161270c916004840191602090910190613175565b5060a08201518051612728916005840191602090910190613175565b5060c0820151600682015560e0909101516007909101805460ff191691151591909117905550506004549998505050505050505050565b600480546000918261277083613f99565b90915550506002805490600061278583613f99565b9091555050604080516060808201835260045480835260208084018c8152600285870181905286516101408101885290548082528184018590528188018f90528186018e905260808083018e905260a083018d905260c083018c905260e083018b9052600c546101008401819052600161012085015289519182018a52918152938401949094529582018d90529281019190915290519192916000805b6000838152600f602052604090205481101561291f5760026000848152600f6020526040902080548390811061285a5761285a613f80565b60009182526020909120600260039092020181015460ff169081111561288257612882613995565b0361290d576000838152600f602052604081208054600194506012929190849081106128b0576128b0613f80565b6000918252602080832060039283020154845283810194909452604092830182208054600181810183559184529285902089516004909402019283559388015193820193909355908601516002820155606086015191015561291f565b8061291781613f99565b915050612822565b50806129d857602080860180516000908152600f8352604080822080546001818101835591845294909220895160039095020193845591518382015590870151600280840180548a9594919260ff199091169190849081111561298457612984613995565b02179055505085516000908152601260209081526040808320805460018181018355918552938390208851600490950201938455918701519183019190915585015160028201556060850151600390910155505b600c80546001810182556000919091528451600a9091027fdf6966c971051c3d54ec59162606531493a51404a002842f56009d7e5cf4a8c781019182556020808701517fdf6966c971051c3d54ec59162606531493a51404a002842f56009d7e5cf4a8c883015560408701517fdf6966c971051c3d54ec59162606531493a51404a002842f56009d7e5cf4a8c983015560608701517fdf6966c971051c3d54ec59162606531493a51404a002842f56009d7e5cf4a8ca83015560808701517fdf6966c971051c3d54ec59162606531493a51404a002842f56009d7e5cf4a8cb83015560a08701517fdf6966c971051c3d54ec59162606531493a51404a002842f56009d7e5cf4a8cc83015560c08701518051889493612b1d937fdf6966c971051c3d54ec59162606531493a51404a002842f56009d7e5cf4a8cd909101920190613175565b5060e08201518051612b39916007840191602090910190613175565b506101008201516008820155610120909101516009909101805460ff191691151591909117905550506004549a9950505050505050505050565b612b7b6132a7565b600a8281548110612b8e57612b8e613f80565b906000526020600020906008020160405180610100016040529081600082015481526020016001820154815260200160028201548152602001600382018054612bd690613f43565b80601f0160208091040260200160405190810160405280929190818152602001828054612c0290613f43565b8015612c4f5780601f10612c2457610100808354040283529160200191612c4f565b820191906000526020600020905b815481529060010190602001808311612c3257829003601f168201915b50505050508152602001600482018054612c6890613f43565b80601f0160208091040260200160405190810160405280929190818152602001828054612c9490613f43565b8015612ce15780601f10612cb657610100808354040283529160200191612ce1565b820191906000526020600020905b815481529060010190602001808311612cc457829003601f168201915b50505050508152602001600582018054612cfa90613f43565b80601f0160208091040260200160405190810160405280929190818152602001828054612d2690613f43565b8015612d735780601f10612d4857610100808354040283529160200191612d73565b820191906000526020600020905b815481529060010190602001808311612d5657829003601f168201915b50505091835250506006820154602082015260079091015460ff16151560409091015292915050565b600a54600090821015612de8576000600a8381548110612dbe57612dbe613f80565b60009182526020909120600890910201600701805460ff1916911515919091179055506001919050565b506000919050565b6010602052816000526040600020818154811061122c57600080fd5b612e146132a7565b6000600a8681548110612e2957612e29613f80565b906000526020600020906008020160405180610100016040529081600082015481526020016001820154815260200160028201548152602001600382018054612e7190613f43565b80601f0160208091040260200160405190810160405280929190818152602001828054612e9d90613f43565b8015612eea5780601f10612ebf57610100808354040283529160200191612eea565b820191906000526020600020905b815481529060010190602001808311612ecd57829003601f168201915b50505050508152602001600482018054612f0390613f43565b80601f0160208091040260200160405190810160405280929190818152602001828054612f2f90613f43565b8015612f7c5780601f10612f5157610100808354040283529160200191612f7c565b820191906000526020600020905b815481529060010190602001808311612f5f57829003601f168201915b50505050508152602001600582018054612f9590613f43565b80601f0160208091040260200160405190810160405280929190818152602001828054612fc190613f43565b801561300e5780601f10612fe35761010080835404028352916020019161300e565b820191906000526020600020905b815481529060010190602001808311612ff157829003601f168201915b50505091835250506006820154602082015260079091015460ff1615156040909101526060810186905260a0810184905260808101859052600a805491925082918890811061305f5761305f613f80565b906000526020600020906008020160008201518160000155602082015181600101556040820151816002015560608201518160030190805190602001906130a7929190613175565b50608082015180516130c3916004840191602090910190613175565b5060a082015180516130df916005840191602090910190613175565b5060c0820151600682015560e0909101516007909101805460ff191691151591909117905595945050505050565b6012602052816000526040600020818154811061122c57600080fd5b600c54600090821015612de8576000600c838154811061314b5761314b613f80565b60009182526020909120600a90910201600901805460ff1916911515919091179055506001919050565b82805461318190613f43565b90600052602060002090601f0160209004810192826131a357600085556131e9565b82601f106131bc57805160ff19168380011785556131e9565b828001600101855582156131e9579182015b828111156131e95782518255916020019190600101906131ce565b506131f59291506132ee565b5090565b6040518061014001604052806000815260200160008152602001600081526020016000815260200160008152602001600081526020016060815260200160608152602001600081526020016000151581525090565b82805482825590600052602060002090810192821561329b579160200282015b8281111561329b578251805161328b918491602090910190613175565b509160200191906001019061326e565b506131f5929150613303565b604051806101000160405280600081526020016000815260200160008152602001606081526020016060815260200160608152602001600081526020016000151581525090565b5b808211156131f557600081556001016132ef565b808211156131f55760006133178282613320565b50600101613303565b50805461332c90613f43565b6000825580601f1061333c575050565b601f01602090049060005260206000209081019061335a91906132ee565b50565b6000815180845260005b8181101561338357602081850181015186830182015201613367565b81811115613395576000602083870101525b50601f01601f19169290920160200192915050565b805182526000602082015160a060208501526133c960a085018261335d565b9050604083015184820360408601526133e2828261335d565b91505060608301516060850152608083015160808501528091505092915050565b600060208083018184528085518083526040860191506040848202870101925083870160005b8281101561345757603f198886030184526134458583516133aa565b94509285019290850190600101613429565b5092979650505050505050565b6000806040838503121561347757600080fd5b50508035926020909101359150565b81518152602080830151908201526040808301519082015260608083015190820152608081016109df565b60e060020a634e487b7102600052604160045260246000fd5b604051610120810167ffffffffffffffff811182821017156134ee576134ee6134b1565b60405290565b604051601f8201601f1916810167ffffffffffffffff8111828210171561351d5761351d6134b1565b604052919050565b600082601f83011261353657600080fd5b813567ffffffffffffffff811115613550576135506134b1565b613563601f8201601f19166020016134f4565b81815284602083860101111561357857600080fd5b816020850160208301376000918101602001919091529392505050565b600080604083850312156135a857600080fd5b823567ffffffffffffffff808211156135c057600080fd5b6135cc86838701613525565b935060208501359150808211156135e257600080fd5b506135ef85828601613525565b9150509250929050565b848152608060208201526000613612608083018661335d565b8281036040840152613624818661335d565b91505082606083015295945050505050565b6000610100825184526020830151602085015260408301516040850152606083015181606086015261366a8286018261335d565b91505060808301518482036080860152613684828261335d565b91505060a083015184820360a086015261369e828261335d565b91505060c083015160c085015260e0830151151560e08501528091505092915050565b600060208083018184528085518083526040860191506040848202870101925083870160005b8281101561345757603f19888603018452613703858351613636565b945092850192908501906001016136e7565b600080600080600060a0868803121561372d57600080fd5b853594506020860135935060408601359250606086013567ffffffffffffffff8082111561375a57600080fd5b61376689838a01613525565b9350608088013591508082111561377c57600080fd5b5061378988828901613525565b9150509295509295909350565b6000610140825184526020830151602085015260408301516040850152606083015160608501526080830151608085015260a083015160a085015260c08301518160c08601526137e88286018261335d565b91505060e083015184820360e0860152613802828261335d565b915050610100808401518186015250610120808401516138258287018215159052565b5090949350505050565b6020815260006138426020830184613796565b9392505050565b60006020828403121561385b57600080fd5b5035919050565b85815260a06020820152600061387b60a083018761335d565b828103604084015261388d818761335d565b60608401959095525050608001529392505050565b600080600080608085870312156138b857600080fd5b5050823594602084013594506040840135936060013592509050565b600060208083018184528085518083526040860191506040848202870101925083870160005b8281101561345757603f19888603018452613916858351613796565b945092850192908501906001016138fa565b60006101408c83528b60208401528a60408401528960608401528860808401528760a08401528060c08401526139608184018861335d565b905082810360e0840152613974818761335d565b61010084019590955250509015156101209091015298975050505050505050565b60e060020a634e487b7102600052602160045260246000fd5b8381526020810183905260608101600383106139dd5760e060020a634e487b7102600052602160045260246000fd5b826040830152949350505050565b60006101608d83528c60208401528b6040840152806060840152613a118184018c61335d565b90508281036080840152613a25818b61335d565b90508860a08401528760c084015282810360e0840152613a45818861335d565b610100840196909652505061012081019290925215156101409091015298975050505050505050565b60208152600061384260208301846133aa565b600060208284031215613a9357600080fd5b813573ffffffffffffffffffffffffffffffffffffffff8116811461384257600080fd5b87815286602082015285604082015284606082015283608082015260e060a08201526000613ae860e083018561335d565b90508260c083015298975050505050505050565b60006101008a8352896020840152886040840152806060840152613b228184018961335d565b90508281036080840152613b36818861335d565b905082810360a0840152613b4a818761335d565b60c0840195909552505090151560e0909101529695505050505050565b600067ffffffffffffffff821115613b8157613b816134b1565b5060209081020190565b600082601f830112613b9c57600080fd5b81356020613bb1613bac83613b67565b6134f4565b82815291810284018101918181019086841115613bcd57600080fd5b8286015b84811015613c0d57803567ffffffffffffffff811115613bf15760008081fd5b613bff8986838b0101613525565b845250918301918301613bd1565b509695505050505050565b600080600080600060a08688031215613c3057600080fd5b8535945067ffffffffffffffff8060208801351115613c4e57600080fd5b613c5e8860208901358901613525565b94508060408801351115613c7157600080fd5b613c818860408901358901613525565b93508060608801351115613c9457600080fd5b613ca48860608901358901613525565b92508060808801351115613cb757600080fd5b6080870135870188601f820112613ccd57600080fd5b613cda613bac8235613b67565b81358082526020808301929181028401018b1015613cf757600080fd5b602083015b602080853502850101811015613e03578481351115613d1a57600080fd5b80358401610120818e03601f19011215613d3357600080fd5b613d3b6134ca565b6020820135815260408201356020820152606082013560408201526080820135606082015260a082013560808201528660c08301351115613d7b57600080fd5b613d8e8e602060c0850135850101613525565b60a08201528660e08301351115613da457600080fd5b613db78e602060e0850135850101613b8b565b60c0820152866101008301351115613dce57600080fd5b613de28e6020610100850135850101613b8b565b60e08201526101209190910135610100820152835260209283019201613cfc565b50809450505050509295509295909350565b60008060008060008060c08789031215613e2e57600080fd5b86359550602087013594506040870135935060608701359250608087013567ffffffffffffffff80821115613e6257600080fd5b613e6e8a838b01613525565b935060a0890135915080821115613e8457600080fd5b50613e9189828a01613525565b9150509295509295509295565b6020815260006138426020830184613636565b60008060008060808587031215613ec757600080fd5b84359350602085013567ffffffffffffffff80821115613ee657600080fd5b613ef288838901613525565b94506040870135915080821115613f0857600080fd5b613f1488838901613525565b93506060870135915080821115613f2a57600080fd5b50613f3787828801613525565b91505092959194509250565b600281046001821680613f5757607f821691505b602082108103613f7a5760e060020a634e487b7102600052602260045260246000fd5b50919050565b60e060020a634e487b7102600052603260045260246000fd5b600060018201613fbc5760e060020a634e487b7102600052601160045260246000fd5b506001019056fea2646970667358221220e0e6043b03dff25eb0f793618e0ac2a4fa721902cdb8fce14a7b1f853c8ad83a64736f6c634300080e0033",
  "immutableReferences": {},
  "source": "// SPDX-License-Identifier: GPL-3.0\npragma solidity ^0.8.9;\n\ncontract SimpleStorage{\n    // -----------------------|   ID COUNTER STORE  |--------------------------------------//\n\n    uint public userId;\n    uint public roomId;\n    uint public eventId;\n    uint public transportId;\n    uint public serviceId;\n    uint public roomBookingId;\n    uint public transportBookingId;\n    uint public eventBookingId;\n    uint public hotelId;\n\n    // -----------------------|   LIST STORE  |--------------------------------------//\n\n    User[] public userList;\n    Hotel[] public hotelList;\n    Transport[] public transportList;\n    Event[] public eventList;\n\n    // -----------------------|   MAPPINGS STORE  |--------------------------------------//\n    // UserId -> User mapping \n    mapping(uint => User) public users;\n\n    // User address -> Check if user account has already been created\n    mapping(address => uint) public accountCreated;\n\n    // UserId -> Service Array consisting of `SERVICE` objects\n    mapping(uint => Service[]) public userServices;\n\n    // Service Id -> HostelsMinified Array consists of `HOTEL_MINIFIED` objects\n    mapping(uint => HotelMinified[]) public serviceHotels;\n\n    // ServiceId -> Transport Array consisting of `TRANSPORT` objects\n    mapping(uint => TransportMinified[]) public serviceTransports;\n\n    // ServiceId -> Event Array consisting of `EVENT` objects\n    mapping(uint => EventMinified[]) public serviceEvents;\n\n    // UserId -> RoomBooking Array consisting of `ROOMBOOKING` objects\n    mapping(uint => RoomBooking[]) public userRoomBookings;\n\n    // UserId -> TransportBooking Array consisting of `TRANSPORT_BOOKING` objects\n    mapping(uint => TransportBooking[]) public userTransportBookings;\n\n    // UserId -> EventBooking Array consisiting of `EVENT_BOOKING` objects\n    mapping(uint => EventBooking[]) public userEventBookings;\n\n    // hotelId -> Room Array consisiting of `ROOM` objects\n    mapping(uint => Room[]) public hotelRooms;\n\n    // hotelId -> Reviews Array consisiting of `REVIEW` objects\n    mapping(uint => Review[]) public hotelReviews;\n\n    // transportId -> Reviews Array consisiting of `REVIEW` objects\n    mapping(uint => Review[]) public transportReviews;\n\n    // eventId -> Reviews Array consisiting of `REVIEW` objects\n    mapping(uint => Review[]) public eventReviews;\n\n\n    // ---------------------------|   STRUCT LIST  |--------------------------------------//\n    // --| Minified Structs are created in order to save space as well as have a single source of truth  |--//\n\n    /*\n\n        MAPPINGS \n         USER ----- [ID] ----- [ Service ] ---- [ID]  ----- [ HOTEL (For Example) ] -----[ID] -----[ROOM (For Example) ]\n         But here there are more layers of information\n         [Service] ----- [SERVICE_TYPE (Minified)] -----> Contains the index of <SERVICE_TYPE>list\n\n\n        Why make list ?? \n         Easier to get all the values at once. \n         One source of truth because of the introduction of MinifiedStructs\n         Edits and Delete are easier as to just edit the element at the index\n         Delete will just trigger `isActive` to `false` ------> Preserves indexing\n\n        Struct (NORMAL)  V/S  Struct (MINIFIED) -> [As used in HotelMinified, EventMinified, TransportMinified]\n         Struct (NORMAL) is a superset of Struct (MINIFIED).\n         Struct (MINIFIED) and Struct (NORMAL) only shares those properties which can't be changed once created.\n    */\n\n    struct User {\n        uint id;\n        string name;\n        string mobileNo;\n        uint loyaltyPoints;\n        uint index;\n    }\n\n    struct RoomBooking {\n        uint id;\n        uint userId;\n        uint roomId;\n        uint checkIn;\n        uint checkOut;\n    }\n\n    struct TransportBooking {\n        uint id;\n        uint userId;\n        uint transportId;\n        bool isCancelled;\n    }\n\n    struct EventBooking {\n        uint id;\n        uint userId;\n        uint eventId;\n    }\n\n    struct Service {\n        uint id;\n        uint userId;\n        SERVICE_TYPE serviceType;\n    }\n\n    enum SERVICE_TYPE{ HOTEL, TRANSPORT, EVENT }\n\n    struct Hotel {\n        uint id; // -> not recommended to use this for GET (May be used in future)\n        uint userId;\n        uint serviceId;\n        string name;\n        string typeofHotel;\n        string location;\n        uint index; // DB Indexing for Pipeline\n        bool isActive;\n    }\n\n    struct HotelMinified {\n        uint id; // -> not recommended to use this for GET (May be used in future)\n        uint userId;\n        uint serviceId;\n        uint index; // DB Indexing for Pipeline\n    }\n\n    struct Room {\n        uint id;\n        uint hotelId;\n        uint userId;\n        uint numOfTotalRooms;\n        uint numOfRoomsBooked;\n        string roomType;\n        string[] roomPics;\n        string[] facilities;\n        uint index;\n    }\n\n    struct Transport {\n        uint id;\n        uint userId;\n        uint serviceId;\n        string origin;\n        string destination;\n        uint startTime;\n        uint endTime;\n        string transportType;\n        uint fare;\n        string[] facilities;\n        uint index;\n        bool isActive;\n    }\n\n    struct TransportMinified {\n        uint id;\n        uint userId;\n        uint serviceId;\n        uint index;\n    }\n\n    struct Event {\n        uint id;\n        uint userId;\n        uint serviceId;\n        uint startTime;\n        uint endTime;\n        uint price;\n        string heading;\n        string description;\n        uint index;\n        bool isActive;\n    }\n\n    struct EventMinified {\n        uint id;\n        uint userId;\n        uint serviceId;\n        uint index;\n    }\n\n    struct Review {\n        uint id;\n        string title;\n        string description;\n        uint starCount;\n    }\n\n    // -----------------------|   Add User  |--------------------------------------//\n\n    function addUser(string memory _name, string memory _mobileNo) public returns(uint) {\n        userId++;\n        accountCreated[msg.sender] = userId;\n        User memory newUser = User(userId,_name,_mobileNo,0,userList.length);\n        users[userId] = newUser;\n        userList.push(newUser);\n        return newUser.id;\n    }\n\n    // -----------------------|  Add Bookings [ POST ]  |--------------------------------------//\n\n    function addRoomBooking(uint _userId, uint _roomId, uint _checkIn, uint _checkOut) public returns(uint) {\n        roomBookingId++;\n        RoomBooking memory newRoomBooking = RoomBooking(roomBookingId,_userId,_roomId,_checkIn,_checkOut);\n        userRoomBookings[newRoomBooking.userId].push(newRoomBooking);\n        return newRoomBooking.id;\n    }\n\n    // function addTransportBooking(uint _userId, uint _transportId) public returns(uint) {\n    //     transportBookingId++;\n    //     TransportBooking memory newTransportBooking = TransportBooking(transportBookingId,_userId,_transportId,false);\n    //     userTransportBookings[newTransportBooking.userId].push(newTransportBooking);\n    //     return newTransportBooking.id;\n    // }\n\n    function addEventBooking( uint _userId, uint _eventId) public returns(uint) {\n        eventBookingId++;\n        EventBooking memory newEventBooking = EventBooking(eventBookingId,_userId,_eventId);\n        userEventBookings[newEventBooking.userId].push(newEventBooking);\n        return newEventBooking.id;\n    }\n\n    // -----------------------|   Add Services   |--------------------------------------//\n\n    function addHotel(uint _userId, string memory _name,string memory _typeofHotel, string memory _location, Room[] memory _rooms) public returns (uint) {\n        // Incrementing serivceId for uniqueness\n        serviceId++;\n\n        // Incrementing hotelid for uniqueness\n        hotelId++;\n\n        // Incrementing roomId for uniqueness\n        roomId++;\n\n        Service memory newService = Service(serviceId,_userId,SERVICE_TYPE.HOTEL);\n        Hotel memory newHotel = Hotel(hotelId,_userId,serviceId,_name,_typeofHotel,_location, hotelList.length,true);\n        HotelMinified memory newHotelMinified = HotelMinified(hotelId,_userId,serviceId,hotelList.length);\n        uint currentUserId = newService.userId;\n\n         // Updating the hotelId from the room and pushing\n        for (uint i = 0; i < _rooms.length; i++) {\n            _rooms[i].id = roomId;\n            _rooms[i].hotelId = hotelId;\n            hotelRooms[hotelId].push(_rooms[i]);\n            roomId++;\n        }\n\n        // Checking if the same service type exists\n        // If exists then change the exisiting object\n        // Here we are applying as it is not expensive. At max it will iterate 3 times\n        bool serviceTypeFound = false;\n        for(uint i=0;i<userServices[currentUserId].length;i++){\n            if(userServices[currentUserId][i].serviceType == SERVICE_TYPE.HOTEL){\n                serviceTypeFound = true;\n                serviceHotels[userServices[currentUserId][i].id].push(newHotelMinified);\n                break;\n            }\n        }\n\n        // If the same service type doesn't exist then\n        if(!serviceTypeFound){\n            userServices[newService.userId].push(newService);\n            serviceHotels[newService.id].push(newHotelMinified);\n        }\n        \n        // Lastly add to the list\n        hotelList.push(newHotel);\n\n        // This wil send the serviceId\n        return serviceId;\n    }\n\n    function addEvent(uint _userId, uint _startTime, uint _endTime, uint _price, string memory _heading, string memory _description) public returns (uint) {\n        // Incrementing serivceId for uniqueness\n        serviceId++;\n\n        // Incrementing eventId for uniqueness\n        eventId++;\n\n        Service memory newService = Service(serviceId,_userId,SERVICE_TYPE.EVENT);\n        Event memory newEvent = Event(eventId, serviceId, _userId,_startTime,_endTime,_price,_heading,_description, eventList.length,true);\n        EventMinified memory newEventMinified = EventMinified(eventId, serviceId, _userId,eventList.length);\n        uint currentUserId = newService.userId;\n\n\n        // Checking if the same service type exists\n        // If exists then change the exisiting object\n        // Here we are applying as it is not expensive. At max it will iterate 3 times\n        bool serviceTypeFound = false;\n        for(uint i=0;i<userServices[currentUserId].length;i++){\n            if(userServices[currentUserId][i].serviceType == SERVICE_TYPE.EVENT){\n                serviceTypeFound = true;\n                serviceEvents[userServices[currentUserId][i].id].push(newEventMinified);\n                break;\n            }\n        }\n\n        // If the same service type doesn't exist then\n        if(!serviceTypeFound){\n            userServices[newService.userId].push(newService);\n            serviceEvents[newService.id].push(newEventMinified);\n        }\n\n        // Lastly add to the list\n        eventList.push(newEvent);\n\n        // This wil send the serviceId\n        return serviceId;\n    }\n\n    // function addTransport(uint _userId, string memory _origin,string memory _destination, uint _startTime, uint _endTime, string memory _transportType, uint _fare, string[] memory _facilities) public returns (uint) {\n    //     // Incrementing serivceId for uniqueness\n    //     serviceId++;\n\n    //     // Incrementing transportId for uniqueness\n    //     transportId++;\n\n    //     Service memory newService = Service(serviceId,_userId,SERVICE_TYPE.TRANSPORT);\n    //     Transport memory newTransport = Transport(transportId,serviceId,_userId,_origin,_destination,_startTime,_endTime,_transportType,_fare,_facilities,transportList.length,true);\n    //     TransportMinified memory newTransportMinified = TransportMinified(transportId,serviceId,_userId,transportList.length);\n    //     // Incrementing serivceId for uniqueness)\n    //     uint currentUserId = newService.userId;\n    //     newService.id = serviceId;\n    //     newService.id = transportId;\n\n\n    //     // Checking if the same service type exists\n    //     // If exists then change the exisiting object\n    //     // Here we are applying as it is not expensive. At max it will iterate 3 times\n    //     bool serviceTypeFound = false;\n    //     for(uint i=0;i<userServices[currentUserId].length;i++){\n    //         if(userServices[currentUserId][i].serviceType == SERVICE_TYPE.TRANSPORT){\n    //             serviceTypeFound = true;\n    //             serviceTransports[userServices[currentUserId][i].id].push(newTransportMinified);\n    //             break;\n    //         }\n    //     }\n\n    //     // If the same service type doesn't exist then\n    //     if(!serviceTypeFound){\n    //         userServices[newService.userId].push(newService);\n    //         serviceTransports[newService.id].push(newTransportMinified);\n    //     }\n\n    //     // Lastly add to the list\n    //     transportList.push(newTransport);\n\n    //     // This wil send the serviceId\n    //     return serviceId;\n    // }\n\n    // -----------------------|  GET LIST  |--------------------------------------//\n\n    function getHotels() public view returns (Hotel[] memory) {\n        return hotelList;\n    }\n\n    function getEvents() public view returns (Event[] memory) {\n        return eventList;\n    }\n\n    // function getTransports() public view returns (Transport[] memory) {\n    //     return transportList;\n    // }\n\n    function getUsers() public view returns (User[] memory) {\n        return userList;\n    }\n\n    function getUserLoginStatus() public view returns (uint) {\n        \n        return accountCreated[msg.sender];\n    }\n\n    // -----------------------|  GET by ID [ Slow + shows minified result + Not Recommended (Use Index Shown Below) ]  |--------------------------------------//\n\n    function getHotelById(uint _serviceId, uint _hotelId) public view returns (HotelMinified memory) {\n        HotelMinified[] memory userHotels  = serviceHotels[_serviceId];\n        HotelMinified memory requestedHotel;\n        for(uint i=0;i<userHotels.length;i++){\n            if(userHotels[i].id == _hotelId){\n                requestedHotel = userHotels[i];\n            }\n        }\n        return requestedHotel;\n    }\n\n    function getEventById(uint _serviceId, uint _eventId) public view returns (EventMinified memory) {\n        EventMinified[] memory userEvents  = serviceEvents[_serviceId];\n        EventMinified memory requestedEvent;\n        for(uint i=0;i<userEvents.length;i++){\n            if(userEvents[i].id == _eventId){\n                requestedEvent = userEvents[i];\n            }\n        }\n        return requestedEvent;\n    }\n\n    // function getTransportById(uint _serviceId, uint _hotelId) public view returns (TransportMinified memory) {\n    //     TransportMinified[] memory userTransport  = serviceTransports[_serviceId];\n    //     TransportMinified memory requestedTransport;\n    //     for(uint i=0;i<userTransport.length;i++){\n    //         if(userTransport[i].id == _hotelId){\n    //             requestedTransport = userTransport[i];\n    //         }\n    //     }\n    //     return requestedTransport;\n    // }\n\n    function getUserById(uint _userId) public view returns (User memory) {\n        return users[_userId];\n    }\n\n    // -----------------------|  GET by Index [ Faster  +  Recommended ]  |--------------------------------------//\n\n    function getHotelByIndex(uint index) public view returns (Hotel memory) {\n        return hotelList[index];\n    }\n\n    function getEventByIndex(uint index) public view returns (Event memory) {\n        return eventList[index];\n    }\n\n    // function getTransportByIndex(uint index) public view returns (Transport memory) {\n    //     return transportList[index];\n    // }\n\n    // -----------------------|  PUT  |--------------------------------------//\n\n    function editHotelByIndex(uint _index, string memory _name, string memory _typeOfHotel, string memory _location) public returns (Hotel memory) {\n        Hotel memory updatedHotel = hotelList[_index];\n        updatedHotel.name = _name;\n        updatedHotel.location = _location;\n        updatedHotel.typeofHotel = _typeOfHotel;\n        hotelList[_index] = updatedHotel;\n        return updatedHotel;\n    }\n\n    function editEventByIndex(uint _index, uint _startTime, uint _endTime, string memory _heading, string memory _description) public returns (Event memory) {\n        Event memory updatedEvent = eventList[_index];\n        updatedEvent.startTime = _startTime;\n        updatedEvent.endTime = _endTime;\n        updatedEvent.heading = _heading;\n        updatedEvent.description = _description;\n        eventList[_index] = updatedEvent;\n        return updatedEvent;\n    }\n\n    // function editTransportByIndex(uint _index, string memory _origin, string memory _destination, uint _startTime, uint _endTime, string memory _transportType, uint _fare, string[] memory _facilities) public returns (Transport memory) {\n    //     Transport memory updatedTransport = transportList[_index];\n    //     updatedTransport.startTime = _startTime;\n    //     updatedTransport.endTime = _endTime;\n    //     updatedTransport.origin = _origin;\n    //     updatedTransport.destination = _destination;\n    //     updatedTransport.transportType = _transportType;\n    //     updatedTransport.fare = _fare;\n    //     updatedTransport.facilities = _facilities;\n    //     transportList[_index] = updatedTransport;\n    //     return updatedTransport;\n    // }\n\n    // -----------------------|  DELETE  |--------------------------------------//\n\n    function deleteHotelByIndex(uint index) public returns (bool) {\n        if(index < hotelList.length){\n            hotelList[index].isActive = false;\n            return true;\n        }else{\n            return false;\n        }\n    }\n\n    function deleteEventByIndex(uint index) public returns (bool) {\n        if(index < eventList.length){\n            eventList[index].isActive = false;\n            return true;\n        }else{\n            return false;\n        }\n    }\n\n    // function deleteTransportByIndex(uint index) public returns (bool) {\n    //     if(index < transportList.length){\n    //         transportList[index].isActive = false;\n    //         return true;\n    //     }else{\n    //         return false;\n    //     }\n    // }\n}",
  "sourcePath": "/Users/shubhrajyotidey/Documents/CODE/Hackathons/Hackout/Headhat/truffle/contracts/SimpleStorage.sol",
  "compiler": {
    "name": "solc",
    "version": "0.8.14+commit.80d49f37.Emscripten.clang"
  },
  "schemaVersion": "3.4.10",
  "updatedAt": "2022-10-15T08:37:18.073Z",
  "networkType": "ethereum",
  "devdoc": {
    "kind": "dev",
    "methods": {},
    "version": 1
  },
  "userdoc": {
    "kind": "user",
    "methods": {},
    "version": 1
  }
}